S0160000455345353136204D41494E2046572E7372656393
S214012000107B002031D3020029D4020029D402001B
S21401201000000000000000000000000000000000BA
S214012020000000000000000000000000D9C401000C
S214012030000000000000000001C6010049C60100C2
S21401204029D4020029D4020029D4020025940200D2
S2140120505189020029D402006124010029D402001A
S214012060A5250100C99A0200E19A0200F99A020028
S214012070119B0200299B0200419B020079D20200BB
S2140120808DD20200A1D20200C5A10100D9A1010092
S214012090EDA101000000000000000000E92201009F
S2140120A029D402002524010029D4020029D40200E3
S2140120B00000000010B5064C2378002B07D1054B15
S2140120C0002B02D0044800E000BF0123237010BD9E
S2140120D0100300200000000060D60300084B10B576
S2140120E0002B03D00749084800E000BF07480368F3
S2140120F0002B00D110BD064B002BFBD09847F9E70B
S214012100000000001403002060D6030060D6030020
S2140121100000000080B584B000AF78607B681B6863
S214012120FB60FB685B7EDBB25BB2002B01DA01234E
S21401213000E000231800BD4604B080BD80B584B021
S21401214000AF78607B681B68FB60C0467B68180040
S2140121500B4B9847031EF9D1FB681B7BDBB20222AF
S2140121601343DAB2FB681A73C0467B681800044B47
S2140121709847031EF9D1C046BD4604B080BDC0468F
S2140121801521010080B584B000AF78600A00FB1C01
S2140121901A707B681B68FB60FB68FA1C12789A75DC
S2140121A0C046BD4604B080BD80B584B000AF020015
S2140121B0FB1D1A70FB1D1A78474B9200D358FB6023
S2140121C0FB681B681B7EDAB2FB681B68DB7DDBB233
S2140121D01340DBB2BB60BB680122134045D0FB68ED
S2140121E01B6801221A76C046FB6818003B4B9847CD
S2140121F0031EF9D1FB685B69991CFA685161FA689C
S2140122001268528B92B21A80FB681B8B9BB2013B01
S2140122109BB2FA68191C1183002B08D0FB685B7F00
S214012220002B22D0FB6818002D4B98471DE0FB6859
S214012230012118002B4B9847FB681B7FDBB2052B4F
S21401224013D1FB6800221A77FB68DB7E1A00012394
S21401225013400AD0FB689B7E1A000123134004D06A
S214012260FB689B68FA6810009847BB680422134015
S21401227014D0FB681B6804221A76FB68DB7E1A0002
S214012280022313400AD0FB689B7E1A0002231340E8
S21401229004D0FB68DB68FA6810009847BB68022226
S2140122A0134014D0FB681B6802221A76FB68DB7E9B
S2140122B01A00042313400AD0FB689B7E1A000423ED
S2140122C0134004D0FB681B69FA6810009847C046A3
S2140122D0BD4604B080BDC046A445002015210100BE
S2140122E03D2101008521010080B500AF0020024B91
S2140122F09847C046BD4680BDA921010080B582B081
S21401230000AF0200FB1D1A70074AFB1D1B7819005F
S2140123101F230B40012199400B0019008023D15047
S214012320C046BD4602B080BD00E100E080B584B085
S21401233000AF0200FB1D1A70FB1D1A78374B920086
S214012340D358FB60FB681B68BB60BB689B79DBB23C
S2140123501A00012313400ED0BB6801229A71FB6854
S2140123601433002B07D0FB685B7C002B03D0FB6883
S2140123709B6900209847BB689B79DBB21A00022351
S214012380134047D0BB6802229A71FB689B899BB2B7
S214012390002B33D0FB689A68FB68DB899BB2591C1B
S2140123A088B2F968C8815B00D3181B889AB2BB68EB
S2140123B09A81FB689B899BB2013B9AB2FB689A8122
S2140123C0FB689B899BB2002B18D1FB682022002159
S2140123D09954BB6802221A71BB6802229A711920AD
S2140123E00F4B9847FB681433002B07D0FB689B7C88
S2140123F0002B03D0FB68DB6900209847FB68143389
S214012400002B07D0FB681B7C002B03D0FB685B69A5
S21401241000209847C046BD4604B080BDA8450020B0
S214012420FD22010080B500AF0020024B9847C04650
S214012430BD4680BD2D23010080B500AF024B9847F5
S214012440C046BD4680BDC046B185020080B500AF1E
S214012450024B9847C046BD4680BDC0460586020071
S21401246080B586B000AF494B9847494B1B8C9BB251
S214012470DAB21723FB180F210A401A701723FB182C
S2140124801A78444B9200D3583B61414A3B691B780A
S2140124900F210B40D9B23F23D1543D490F23FB18DE
S2140124A04E228A5C1A703B691B783B4A1B01D31883
S2140124B002331B889BB2BB603B691B78374A1B0102
S2140124C0D31802331B889BB27B60BA687B68D21A2A
S2140124D03B695A610F23FB181B780122134016D063
S2140124E02B4A4E230121D1543B6910225A743B6971
S2140124F01B7C1A000123134042D03B695B68002B0A
S2140125003ED03B695B683A691000984738E00F2374
S214012510FB181B780222134016D01D4A4E230221B7
S214012520D1543B6900225A743B691B7C1A00022372
S214012530134025D03B699B68002B21D03B699B68E3
S2140125403A69100098471BE00F23FB181B780422FA
S214012550134015D00E4A4E230421D1543B6906225E
S2140125605A743B691B7C1A000423134008D03B694C
S214012570DB68002B04D03B69DB683A69100098479A
S214012580074B9847C046BD4606B080BD39240100BA
S2140125900048004180030020B045002030030020A1
S2140125A04D24010080B582B000AF154B1B697B60DE
S2140125B0144B9B693B60124B9A683B681A43104B5D
S2140125C09A60104B104A9A6108E07B685A687B68EB
S2140125D01B68180090477B689B687B607B68002BB4
S2140125E0F3D1074BDB683B60054B9B683A68D243E7
S2140125F01A40034B9A60C046BD4602B080BDC04635
S2140126000000002000040042FFFF0F0F80B582B0DB
S21401261000AF02003960FB1D1A70FB1D1B78012BF1
S2140126200AD0022B0FD0002B14D10E4B0D4A916904
S2140126303A680A439A610FE00A4B0A4AD1693A6836
S2140126400A43DA6108E0074B064A116A3A680A4308
S2140126501A6201E0172300E000231800BD4602B00D
S21401266080BDC0460004004080B500AF02210220B4
S214012670074B9847074B01221A70C046054B1B783B
S214012680DBB21A0001231340F8D1C046BD4680BD17
S2140126900D2601000004004280B584B000AF7860CA
S2140126A07B681B68FB60FB68DB69072213405A1EC8
S2140126B09341DBB21800BD4604B080BD80B582B040
S2140126C000AF7860C0467B681800044B9847031E2D
S2140126D0F9D1C046BD4602B080BDC046992601006C
S2140126E080B584B000AF78607B681B68FB60FB68D0
S2140126F01B681B01DB0FDBB21A000B23FB18511EF4
S2140127008A411A700823FB187A68528B1A807B68F4
S2140127109B8B9AB20823FB180821791809888A1A14
S2140127201A807B689B8B9BB2013B9AB27B689A832B
S2140127300B23FB181B78002B10D07B68DB7A002B51
S2140127401CD07B689B8B9BB2012B17D1FB685B6807
S2140127508022D2021A43FB685A600FE07B68DB7A5C
S214012760002B0BD07B689B8B9BB2002B06D1FB68A2
S2140127705B688022D2021A43FB685A607B689B8B97
S2140127809BB2002B0ED17B689B7A002B0AD07B680C
S21401279018000E4B9847FB685B68C02292021A43EA
S2140127A0FB685A607B681800084B98477B681A6A72
S2140127B00823FB181B88D318FA682821525CD2B26A
S2140127C01A70C046BD4604B080BDC046BD26010095
S2140127D080B584B000AF78607B681B68FB60FB68DF
S2140127E05B8B9BB21A000423134004D07B6825221E
S2140127F01E21995424E00A23FB187A68528B1A800A
S2140128007B689B8B9AB20A23FB180A2179180988E0
S2140128108A1A1A807B689B8B9BB2013B9AB27B68B3
S2140128209A837B681800084B98477B681A6A0A23C4
S214012830FB181B88D3181B78D9B2FB682822995439
S214012840BD4604B080BDC046BD26010080B584B03B
S21401285000AF78607B681B68FB60FB681B7EDBB2A1
S2140128601A00012313402BD0FB6801221A76FB685D
S2140128705B8B9BB21A000223134004D07B6825228F
S214012880412199541CE0FB685B8B9BB21A00042320
S214012890134015D07B682522182199547B680022A5
S2140128A09A837B689B7A002B0AD07B681800134BAF
S2140128B09847FB685B68C02292021A43FB685A601D
S2140128C07B689B8B9AB27B685A837B6825229B5CCC
S2140128D0DBB2052B0ED17B6824229B5CDBB2002B7E
S2140128E004D17B681800064B984703E07B68180004
S2140128F0044B9847C046BD4604B080BDBD260100C6
S214012900D1270100E126010080B584B000AFF86050
S214012910B960FB1D1A70FB1D1B78FA6802339B0019
S214012920D3180433BA681A60FB681B7EDBB25AB24E
S214012930FB1D1B78012199400B005BB213435BB270
S214012940DAB2FB681A76C046BD4604B080BD000008
S21401295090B587B000AF786039607B681B683B61D3
S2140129603B685A687B681A623B685A887B689A8318
S2140129707B682422012199547B68252205219954DC
S2140129803B691B681B01DB0FDBB21A000F23FB1828
S214012990511E8A411A703B685B7A002B06D03B6851
S2140129A09A7A7B68110018003B4B98470F23FB1857
S2140129B01B78002B0BD03B685B88012B07D13B694A
S2140129C05B688022D2021A433B695A6005E03B6984
S2140129D05B68324A1A403B695A603B681B7A002B97
S2140129E045D03B681B885A003B685B7A9B031343C0
S2140129F01A0080231B021A433B695A621723FC18EC
S214012A007B681800264B9847030023703B695B6878
S214012A10224A1A403B695A601723FB181B78002B81
S214012A2007D11723FC187B6818001E4B9847030034
S214012A3023701723FB181B78002B14D13B69032244
S214012A409A753B681B881B0A9BB2782213439BB27C
S214012A505A003B685B7A9B031343012213431A0017
S214012A603B695A6212E01723FB181B780FE03B699B
S214012A7003229A753B681B885B0001221A433B6858
S214012A805B7A9B0313431A003B695A6200231800C2
S214012A90BD4607B090BDC04671A10100FFFFFBFF18
S214012AA013A10100B5A0010080B582B000AF786027
S214012AB039607B689B8B9BB2002B01D005230CE011
S214012AC07B6801229A727B680122DA723A687B6817
S214012AD011001800034B984703001800BD4602B0CA
S214012AE080BDC0465129010080B584B000AF786032
S214012AF039607B681B68FB603B685B7A002B06D0FD
S214012B003B689A7A7B68110018001E4B9847FB6851
S214012B105B681D4A1A40FB685A603B685A687B68C6
S214012B201A623B685A887B689A837B682422002154
S214012B3099547B68252205219954FB6803229A75CE
S214012B403B681B7A002B0DD03B681B885A003B68FC
S214012B505B7A9B0313431A0080231B021A43FB680C
S214012B605A6209E03B681B885A003B685B7A9B0304
S214012B7013431A00FB685A6200231800BD4604B0CE
S214012B8080BDC04671A10100FFFFFBFF80B582B08A
S214012B9000AF786039607B689B8B9BB2002B01D0BD
S214012BA005230CE07B6801229A727B680122DA72A7
S214012BB03A687B6811001800034B98470300180019
S214012BC0BD4602B080BDC046E92A010080B586B088
S214012BD000AF0200FB1D1A70FB1D1A78934B920082
S214012BE0D3587B617B691B683B613B691B681B0192
S214012BF0DB0FDBB21A000F23FB18511E8A411A7035
S214012C000E23FB187A69527E1A707B691B7EDAB234
S214012C100E23FB180E21791809780A401A707B6971
S214012C205B8B9BB2002B09D17B699B8B9BB2002BE4
S214012C3004D07B6918007E4B984770E07B695B8BFC
S214012C409BB2002B39D07B699B8B9BB2002B34D176
S214012C507B6925229B5CDBB2052B2ED17B69242266
S214012C609B5CDBB2002B28D13B6903221A757B697A
S214012C7000225A837B692522002199547B699B7A1D
S214012C80002B0BD07B6918006A4B98473B695B6841
S214012C90C02292021A433B695A6002E03B69012254
S214012CA01A760E23FB181B780122134037D07B6956
S214012CB0DB687A691000984731E07B695B8B9BB2D1
S214012CC0002B2CD07B699B8B9BB2002B27D03B69BA
S214012CD05B8B9BB21A002023134011D10F23FB18E4
S214012CE01B7801225340DBB2002B04D17B699B8BFE
S214012CF09BB2012B04D07B692522412199540EE019
S214012D007B6924229B5CDBB2002B04D17B69180013
S214012D10494B984703E07B691800484B98477B6905
S214012D205B8B9BB2002B47D07B699B8B9BB2002BA6
S214012D3042D17B6925229B5CDBB2052B3CD17B69AA
S214012D4024229B5CDBB2012B36D13B691B7EDBB2B6
S214012D501A000223134002D03B6902221A763B690D
S214012D6003221A757B6900225A837B69252200217A
S214012D7099540E23FB181B78022213400BD07B6953
S214012D8024229B5CDBB2012B05D17B691B697A6926
S214012D901000984710E00E23FB181B780122134001
S214012DA00AD07B6924229B5CDBB2002B04D17B69B1
S214012DB0DB687A69100098477B6925229B5CDBB249
S214012DC0052B2ED07B6925229B5CDBB2002B28D0FD
S214012DD03B6903221A757B6900225A837B690022AC
S214012DE09A837B6925229B5CDBB2412B0ED07B69E3
S214012DF09B7A002B0AD07B6918000E4B98473B69DB
S214012E005B68E022D2021A433B695A600E23FB1824
S214012E101B780422134004D07B695B697A69100031
S214012E209847C046BD4606B080BDC046845A0020BD
S214012E304D280100BD260100D1270100E126010031
S214012E40B0B584B000AF78600F23FC187B6818001B
S214012E50204B9847030023700F23FB181B785BB2A7
S214012E60002B2ED10F23FC187B6818001A4B9847AD
S214012E70030023700F23FB181B785BB2002B20D1B5
S214012E8079680F23FC187B680122D020134DA847D0
S214012E90030023700F23FB181B785BB2002B10D1A5
S214012EA07B681B78612B08D10F23FC187B68180000
S214012EB00B4B98470300237003E00F23FB18FD22FA
S214012EC01A700F23FB181B785BB21800BD4604B0BE
S214012ED0B0BDC0462F48010019310100E52E0100A2
S214012EE051390100B0B586B000AFB96011007B6002
S214012EF00F23FB18021C1A700C23FB180A1C1A80DD
S214012F001723FC187B681800254B9847030023708D
S214012F101723FB181B785BB2002B39D17B689B7893
S214012F20002B1AD11723FC187A680F23FB181B787D
S214012F30110018001B4B9847030023701723FB183A
S214012F401B785BB2002B08D10F23FB180F22BA188F
S214012F501278802149420A431A707B689C6C7B6810
S214012F6058780C23FB181D88BA680F23FB181978AC
S214012F702B00A047030019007B68542299547B68F4
S214012F8054229B56002B03D01723FB18FE221A70DF
S214012F901723FB181B785BB21800BD4606B0B0BD00
S214012FA02F48010011460100B0B590B000AFF8609F
S214012FB0B9603B60FB1D1A701423FB181800282308
S214012FC01A000021514B98473F23FC183B68180014
S214012FD04F4B9847030023703F23FB181B785BB2C7
S214012FE0002B00D08AE0FB1D1B78002B00D17FE070
S214012FF0FB1D1B78132B00D97AE03C23FB1800221B
S2140130001A8045E03B689B78002B1FD13C23FB18B8
S2140130101B88FA68D3181B783F22BC183A6811003F
S21401302018003C4B9847030023703C23FB181B8871
S2140130305B003C22BA181288F9688A1812787F2138
S2140130400A40D1B21422BA18D1540CE03C23FB1822
S2140130501B885B003C22BA181288F9688A18117816
S2140130601422BA18D1543C23FB181B885B00013389
S2140130703C22BA181288B9688A1811781422BA182C
S214013080D1543C23FB181A883C23FB1801321A80C2
S214013090FB1D1B789BB23C22BA1812889A42B1D308
S2140130A03F23FB181B785BB2002B26D13B68DC6CF8
S2140130B03B6858781423FB181978FB1D1B789BB2C4
S2140130C0DB189BB2013B9DB21423FB185A1C2B0044
S2140130D0A047030019003B68542299543B685422C8
S2140130E09B56002B09D03F23FB18FE221A7004E0E2
S2140130F03F23FB18FC221A7000E0C0463F23FB1852
S2140131001B785BB21800BD4610B0B0BD4B7903000A
S2140131102F48010011460100B0B584B000AF7860B9
S2140131200E23FB18E0221A700D23FB18B6221A7024
S2140131300F23FC187B681800224B98470300237066
S2140131400F23FB181B785BB2002B33D17B689B786F
S214013150002B07D10F23FC187B6818001A4B9847E1
S214013160030023700F23FB181B785BB2002B21D1C1
S2140131700F23FC187B680D22B9180E22B8180122FD
S214013180124DA847030023707B681B6D0A209847E1
S2140131900F23FB181B785BB2002B0BD17B689B7847
S2140131A0002B07D10F23FC187B681800064B9847A5
S2140131B0030023700F23FB181B785BB21800BD4673
S2140131C004B0B0BD2F4801001D470100A92F010022
S2140131D0B0B588B000AF02003960BB1D1A801B2352
S2140131E0FB1800221A701E23FB1800221A701423E3
S2140131F0FB18180006231A000021E74B98470C23FA
S214013200FB18180006231A000021E34B98471D23DC
S214013210FB183A684421525C1A701F23FC183B685D
S2140132201800DE4B9847030023701F23FB181B78FA
S2140132305BB2002B00D049E2BB1D1B88082213405D
S21401324007D01F23FC183B681800D54B984703008E
S21401325023703B684422002199541F23FB181B78D6
S2140132605BB2002B07D11F23FC183B681800CD4B1F
S214013270984703002370BB1D1B881022134056D0AD
S2140132803B683B3318001F23FC183B6807220021CC
S214013290C54DA847030023701C23FB1875221A701E
S2140132A01F23FB181B785BB2002B0DD11F23FC18C4
S2140132B03A681B23F9181C23FB18187813000122FF
S2140132C0BA4DA84703002370BB1D1B88102213406C
S2140132D014D01B23FB181B785BB21C2293435AB2F3
S2140132E03B683B215B5C9B005BB21C210B405BB2E5
S2140132F013435BB2DAB21B23FB181A701E23FB18AA
S2140133001B781422BA181C2179180978D1541E2367
S214013310FB181B781B22BA1811780C22BA18D15444
S2140133201E23FB181A781E23FB1801321A70BB1DC8
S2140133301B882022134050D03B683D3318001F23C2
S214013340FC183B6808220021974DA847030023700C
S2140133501C23FB1870221A701F23FB181B785BB204
S214013360002B0DD11F23FC183A681B23F9181C23C8
S214013370FB181878130001228C4DA8470300237010
S2140133801B23FB181B785BB2082293435AB23B6897
S2140133903D215B5C5BB208210B405BB213435BB221
S2140133A0DAB21B23FB181A701E23FB181B78142293
S2140133B0BA181C2179180978D1541E23FB181B78DA
S2140133C01B22BA1811780C22BA18D1541E23FB18E6
S2140133D01A781E23FB1801321A70BB1D1B880322A4
S2140133E013406DD03B68393318001F23FC183B6827
S2140133F0052200216C4DA847030023701C23FB18EF
S21401340074221A701F23FB181B785BB2002B0DD198
S2140134101F23FC183A681B23F9181C23FB1818787D
S21401342013000122614DA84703002370BB1D1B88B2
S2140134300122134011D01B23FB181B785BB21F22FD
S21401344013405AB23B6839215B5C5B015BB21343A4
S2140134505BB2DAB21B23FB181A70BB1D1B88022253
S214013460134014D01B23FB181B785BB21C2293431A
S2140134705AB23B683A215B5C9B005BB21C210B4055
S2140134805BB213435BB2DAB21B23FB181A701E231E
S214013490FB181B781422BA181C2179180978D15404
S2140134A01E23FB181B781B22BA1811780C22BA1897
S2140134B0D1541E23FB181A781E23FB1801321A70EA
S2140134C0BB1D1B880422134050D03B6838331800BC
S2140134D01F23FC183B6805220021334DA847030033
S2140134E023701C23FB1872221A701F23FB181B78EB
S2140134F05BB2002B0DD11F23FC183A681B23F91869
S2140135001C23FB18187813000122284DA847030036
S21401351023701B23FB181B785BB2072293435AB216
S2140135203B6838215B5C5BB207210B405BB21343FF
S2140135305BB2DAB21B23FB181A701E23FB181B782A
S2140135401422BA181C2179180978D1541E23FB18A5
S2140135501B781B22BA1811780C22BA18D1541E23D4
S214013560FB181A781E23FB1801321A70BB1D1B8824
S214013570C022134000D18EE03B683E3318001F2363
S214013580FC183B6801220021074DA8470300237061
S2140135901F23FB181B780BE04B7903002F48010013
S2140135A05D3C0100E936010095470100E52E01006A
S2140135B05BB2002B0BD13B683C3318001F23FC1871
S2140135C03B680A220021454DA847030023701C23AF
S2140135D0FB1871221A701F23FB181B785BB2002B95
S2140135E00DD11F23FC183A681B23F9181C23FB185E
S2140135F01878130001223A4DA84703002370BB1D1B
S2140136001B884022134014D01B23FB181B785BB287
S214013610102293435AB23B683E215B5C1B015BB2AE
S21401362010210B405BB213435BB2DAB21B23FB18CB
S2140136301A70BB1D1B888022134013D01B23FB1856
S2140136401B785BB20F2293435AB23B683C215B5C0A
S2140136505BB20F210B405BB213435BB2DAB21B23A2
S214013660FB181A701E23FB181B781422BA181C218B
S21401367079180978D1541E23FB181B781B22BA1817
S21401368011780C22BA18D1541E23FB181A781E235F
S214013690FB1801321A701F23FB181B785BB2002B34
S2140136A00ED11F23FC183D681E23FB181A780C2325
S2140136B0F9181423F8182B000A4DA84703002370A5
S2140136C03B681D22BA18442112785A541F23FB184E
S2140136D01B785BB21800BD4608B0B0BD9547010027
S2140136E0E52E0100A92F0100B0B584B000AF7860C7
S2140136F00E23FB1800221A700C23FB1874221A7072
S2140137000F23FC187B6818003C4B98470300237076
S2140137100F23FB181B785BB2002B66D10F23FC1816
S2140137207B680D22B91801227420354DA847030085
S21401373023700F23FB181B785BB2002B25D10D23BA
S214013740FB181A780E23FB1803210A401A700E2361
S214013750FB181B78002B18D00D23FB181B780322AF
S2140137609343DAB20D23FB181A700F23FC187B68FB
S2140137700D22B9180C22B8180122224DA8470300C1
S21401378023707B681B6D0A2098470E23FB181B7855
S214013790002BC3D17B6844229B5C002B25D00D23D4
S2140137A0FB181B785BB2032293435AB27B68442111
S2140137B05B5C5BB203210B405BB213435BB2DAB2D4
S2140137C00D23FB181A700F23FB181B785BB2002B16
S2140137D00BD10F23FC187B680D22B9180C22B818E0
S2140137E00122084DA847030023700F23FB181B78FE
S2140137F05BB21800BD4604B0B0BDC0462F480100FC
S214013800E52E0100A92F010080B586B000AF7860D3
S21401381039600823FB182A4A1168196092889A8031
S2140138203B6839229B5C1A000823FB189B5C7B6172
S2140138303B683A229B5C1A000823FB189B5C1A0023
S2140138407B699B187B613B6838229B5C1A000823C6
S214013850FB189B5C1A007B699B187B617B69194A84
S21401386053433B613B69184A944663443B613B6959
S214013870164A944663443B613B69F533FF333B612B
S2140138803869134BFA229100984703003B613B6964
S21401389001333B613B699AB27B681A803B683E22E2
S2140138A09B5C002B08D07B681A883B6842215B5AD8
S2140138B0D3189AB27B681A80C046BD4606B080BD52
S2140138C0288D0300AB0700007407000051090000B3
S2140138D0154E030090B585B000AF786039600F23B0
S2140138E0FC183B681800184B9847030023700F23F9
S2140138F0FB181B785BB2002B1DD10F23FC183A680E
S2140139007B6811001800114B9847030023700F23A2
S214013910FB181B785BB2002B0DD17B681B785BB262
S214013920002B04DA3B6845220121995403E03B68E9
S2140139304522002199540F23FB181B785BB218000F
S214013940BD4605B090BDC0462F48010005440100A4
S214013950B0B58EB000AF78600C23FB181800292391
S2140139601A000021BA4B98470B23FB1800221A7045
S2140139703723FC187B681800B64B98470300237062
S2140139803723FB181B785BB2002B00D057E1372397
S214013990FC187B680C22B91819228920AE4DA8475D
S2140139A0030023703723FB181B785BB2002B0DD165
S2140139B03723FC187A680C23FB18193319001300F7
S2140139C01022E120A44DA847030023700C23FB1806
S2140139D022229B5C1B021AB20C23FB1821215B5C82
S2140139E01BB213431BB29AB27B68DA820C23FB1814
S2140139F09B781B021AB20C23FB185B781BB213438D
S214013A001AB27B681A830C23FB18DB785AB27B68E0
S214013A109A760C23FB189B791B021AB20C23FB180F
S214013A205B791BB213431BB29AB27B689A830C2351
S214013A30FB181B7A1B021AB20C23FB18DB791BB28C
S214013A4013431AB27B68DA830C23FB185B7A59B2EC
S214013A507B68202299540C23FB181B7B1B021AB28D
S214013A600C23FB18DB7A1BB213431AB27B685A8409
S214013A700C23FB189B7B1B021AB20C23FB185B7BE7
S214013A801BB213431AB27B689A840C23FB181B7C67
S214013A9059B27B68262299540C23FB18DB7B59B25A
S214013AA07B68272299540C23FB181B7D1B021AB234
S214013AB00C23FB18DB7C1BB213431AB27B681A85F6
S214013AC00C23FB189B7D1B021AB20C23FB185B7D93
S214013AD01BB213431AB27B685A850C23FB18D97D97
S214013AE07B682C2299540C23FB18DB7E1B011AB22F
S214013AF00C23FB189B7E1BB20F210B401BB21343FA
S214013B001BB29AB27B681A810C23FB185B7E1B01E1
S214013B101AB20C23FB189B7E1B09DBB21BB21343A4
S214013B201BB29AB27B685A810C23FB181B7F5AB2D0
S214013B307B681A730C23FB185B7F5AB27B685A7337
S214013B400C23FB189B7F5AB27B689A730C23FB18D5
S214013B50DA7F7B68DA730C23FB1820229B5C5AB24F
S214013B607B681A740C23FB1825229B5C5AB27B686F
S214013B705A740C23FB1824229B5C1B021AB20C23DA
S214013B80FB1823215B5C1BB213431AB27B685A8273
S214013B900C23FB1826229B5C5AB27B681A753723C6
S214013BA0FB181B785BB2002B40D13723FC187B68CF
S214013BB00B22B91801220220274DA84703002370C3
S214013BC00B23FB181B781A003023134000D50F3344
S214013BD01B11D9B27B68342299543723FB181B7802
S214013BE05BB2002B22D13723FC187B680B22B91855
S214013BF001220020184DA847030023700B23FB1851
S214013C001B7859B27B68352299543723FB181B78E9
S214013C105BB2002B0AD13723FC187B680B22B9183C
S214013C20012204200C4DA847030023700B23FB1828
S214013C301B785BB21B1159B27B6836229954372325
S214013C40FB181B785BB21800BD460EB0B0BDC0466F
S214013C504B7903002F480100E52E0100B0B584B072
S214013C6000AF78600F23FC187B6818002C4B984730
S214013C70030023700F23FB181B785BB2002B47D180
S214013C800C23FB1800221A800823FB1800221A8036
S214013C907B6844229B5C012B24D10C23FB185A22FF
S214013CA01A707B6840229B5A7A68110018001D4BD7
S214013CB0984703001A000823FB181A700C23FB18F8
S214013CC064225A707B6842229B5A1800164B98470A
S214013CD003001A000823FB185A707B683C22002157
S214013CE0995403E00F23FB1801221A700F23FB18C7
S214013CF01B785BB2002B0BD10F23FC187B680822C4
S214013D00B9180C22B8180222084DA84703002370E0
S214013D100F23FB181B785BB21800BD4604B0B0BD7C
S214013D202F4801008542010091430100A92F01009F
S214013D30F0B591B000AFF861B961FB69DA10BB6903
S214013D40DB8A5B00D31ABB63DB17FB63BB691822F4
S214013D509B5EBB60DB17FB60304EBA6BFB6BB868D3
S214013D60F968B04702000B005905D00A01433963D0
S214013D70DB127B63FB6BDB07BA6B54081C43FB6BE4
S214013D805D10FB6BDB07BA6B52083A613A691A435E
S214013D903A61FB6B5B107B61204E3A697B692000C0
S214013DA02900B04703000C002205190B0A43BA622A
S214013DB02313FB62BB699B7E5BB21B013B60DB1777
S214013DC07B60164CBA6AFB6A38687968A0470300BC
S214013DD00C00A204990B0A43BA62A313FB623A6B66
S214013DE0BB6AD3181A00BB691A63BB691A6B130046
S214013DF09B009B1880331A120E2318218C46BC4454
S214013E0063441A800E2318229446BC44634400225D
S214013E109B5E1800BD4611B0F0BDC046C5510300FB
S214013E2080B586B000AF786039603B681B6B5B106D
S214013E304D4A944663443B613B699B103A69921034
S214013E405343DB123A682621525653439B10FB60BC
S214013E503B6824229B5E1A003B6953435B00FA6869
S214013E60D318FB60FB689A103B6822215B5E1B043B
S214013E70D318FB603B699B103A69921053435B135E
S214013E803A682021525652015343DA103B681E21EC
S214013E905B5E19003B694B435B10D3183B613B6982
S214013EA09B143B613B6980221202944663443A6844
S214013EB0928B5343DB133B617B6880225203D31AF8
S214013EC07B61FB681B137A69D31A1A00274B53438D
S214013ED07B617B69264A934207DD264B39697869FF
S214013EE0984703005B007B6107E07B695A00214B22
S214013EF039691000984703007B613B682A229B5E64
S214013F0019007B69DB107A69D21053435B134B436C
S214013F101B133B617B699B103A682821525E534311
S214013F205B13FB607B691B127A69121253437A6931
S214013F30121253433A682C21525C53435B14BB6004
S214013F403A69FB68D218BB68D2183B6827215B56D2
S214013F50DB01D3181B117A69D3187B617B691800C2
S214013F60BD4606B080BDC0460006FFFF350C00000A
S214013F70FFFFFF3F294F0300B0B58AB000AF020034
S214013F803960BB1D1A803B681A6B13009B009B1897
S214013F9080331B123B62BB1D1A883B681B891B01C1
S214013FA0D41A3B681B7B5BB21A003B6A5A43384BF8
S214013FB064211000984703005B10E31AFB613B681D
S214013FC05B891C003B685B7B5BB21A003B6A5A4309
S214013FD02F4B64211000984703001D003B689B7B14
S214013FE05BB21A003B6A5A43294B6421100098477A
S214013FF003001A003B6A53439A11254B64211000B3
S21401400098470300EB188022D20194466344634329
S2140140109B12BB61FB69BA6953437B613B68DB7BDF
S214014020DB013B613B681B7C5BB21A003B6A5A436F
S214014030174B64211000984703001A003B69D318F8
S2140140401B113B617B699B137A69921353439B1245
S214014050FB603B69FA6853435B10BB607A69BB68D7
S214014060D3189B12FA22920053431B137B627B6A7E
S214014070084A934202DD074B7B6204E07B6A002B11
S21401408001DA00237B627B6A1800BD460AB0B0BD28
S214014090294F0300A0860100F0B5B7B000AF0300BA
S2140140A03A633622BA1813803523FA180B1C13709C
S2140140B04C233022BA18D2186C4B1000190040233A
S2140140C01A006B4B98470C233022BA18D218694B4A
S2140140D01000190040231A00654B98473A6B3623A7
S2140140E0D356BB61DB17FB61B869F96903000C00A5
S2140140F09A0FA60016439D0003000C005B1974413D
S2140141005D4900225B185441180021003523FB1835
S2140141101B784C223024A446BC4462449B009B5826
S2140141203B6100237B61554C3A697B69A0470300DC
S2140141300C002204190C0A43A02130208446BC44FA
S21401414061440A602314A42230218C46BC44624494
S21401415013603623FB181B889BB2BB600023FB60F1
S214014160B968FA680B005B0C1000C003F862F86AC5
S2140141701843F8620B00DB03BB62FF231B06012416
S2140141806442B96AFA6AC9186241A023302084469B
S214014190BC4463445C681B685B1854419822302118
S2140141A08C46BC446244136054603523FB181A786D
S2140141B00C2330218C46BC4463449200D3583B60A8
S2140141C000237B602D4CA02330229446BC446344DC
S2140141D01A685B6838687968A04703000C00E20536
S2140141E0590A0A43902130208446BC4461440A603F
S2140141F06312942230218C46BC4462441360982397
S21401420030229446BC4463445C681B68E207590844
S2140142103962396A1143396263107B629023302216
S2140142209446BC4463445C681B68386A796AC01863
S2140142306141982330229446BC4463445C681B6801
S2140142400F4D1A002300A84703000C008C223021D2
S2140142508C46BC44624413608C2330229446BC4492
S21401426063441B681800BD4637B0F0BD308D0300AF
S21401427015790300708D03003C050000C55103004D
S2140142807D51030090B58BB000AF02003960BB1DB5
S2140142901A80BB1D1A88C8235B009A4203D9BB1D2E
S2140142A0C82252001A803B681B795BB21A003B6831
S2140142B01B7D5BB253431800334BFA22910098479B
S2140142C003001B027B623B685B7C5BB2C4229200EC
S2140142D09C183B6812229B5E2C4A94466344BA1D86
S2140142E012885A4313009B009A18274B642110002A
S2140142F098470300C82292039A18234B0A211000FC
S2140143009847030063433B623B6A002B00DA0133A4
S2140143105B101A007B6AD318FB613B6834229B5CF6
S2140143201A1D194B1100F86998470300BB613B68D9
S21401433035229B561A0013009B019B185B009B18A5
S21401434080225202944663447B610F4B7969B869B7
S21401435098470300FA3B1A0013001B019B185B00E9
S2140143603B613B6932331A00074B642110009847C2
S21401437003001A000F23FB181A700F23FB181B7873
S2140143801800BD460BB090BD294F03009959020095
S21401439080B584B000AF0200BB1D1A800F23FB1846
S2140143A000221A70BB1D1B88154A934210D90E2392
S2140143B0FB18FF221A701BE0BB1DBA1D128892085B
S2140143C01A800F23FB180F22BA18127801321A70BE
S2140143D0BB1D1B883F2BEFD8BB1D1B88D9B20F23F3
S2140143E0FB181B789B01DAB20E23FB188A181A7089
S2140143F00E23FB181B781800BD4604B080BDC046CE
S214014400BF0F0000B0B58AB000AF786039600823EE
S214014410FB1818000F231A000021764B9847262315
S214014420FB180A221A702723FC183B681800724BE7
S2140144309847030023702723FB181B785BB2002BD9
S21401444000D0B8E02723FC183B680822B9180F22D1
S2140144501D206A4DA847030023700823FB181B780C
S2140144607F229343DAB27B681A700823FB181B7805
S2140144700F221340DAB27B685A700823FB185A7869
S2140144807B689A700823FB189B781A030823FB188D
S214014490DB781B0113430822BA1812791209D2B22B
S2140144A013433B620823FB185B791A030823FB18A6
S2140144B09B791B0113430822BA18D2791209D2B28A
S2140144C01343FB610823FB181B7A9BB21B0299B2AC
S2140144D00823FB185B7A9AB21A23FB180A431A8040
S2140144E00823FB185B7B9BB29B0099B20823FB1841
S2140144F09B7B9B09DBB29AB21823FB180A431A80EE
S2140145000823FB189A7B1723FB180F210A401A7001
S2140145107B681B785AB20823FB189B7B5BB2202171
S2140145200B405BB213435BB2DAB27B681A707B68EE
S2140145301B785AB20823FB189B7B5BB210210B40F9
S2140145405BB213435BB2DAB27B681A707B681B7886
S2140145505BB2002B2BDA3A68FB6911001800284B76
S214014560984703001A007B689A803A683B6A1100F4
S2140145701800244B984702007B689A603A681A2311
S214014580FB181B88110018001F4B984702007B6818
S214014590DA603A681723FB1819781823FB181B886A
S2140145A018001A4B984702007B681A6110E03B68B6
S2140145B01B6D0A2098472623FB181A782623FB181A
S2140145C0013A1A702623FB181B78002B00D032E71D
S2140145D02623FB181B78002B03D12723FB18022266
S2140145E01A702723FB181B785BB21800BD460AB069
S2140145F0B0BDC0464B7903002F480100E52E0100EF
S214014600313D0100213E0100793F01009940010042
S21401461090B585B000AF02003960FB1D1A700F23FC
S214014620FC183B6818003C4B9847030023700F2387
S214014630FB181B785BB2002B66D1FB1D1B785BB2A7
S214014640002B04DA0E23FB1800221A7003E00E2357
S214014650FB1810221A703B68DB780E22BA18127803
S2140146609A4251D03B680E22BA181278DA703B682B
S2140146709C6C3B6858780D23FA180123F321A04758
S214014680030019003B68542299543B6854229B56F8
S214014690002B03D00F23FB18FE221A700F23FB18E2
S2140146A01B785BB2002B2FD10D23FB181B78102231
S2140146B09343DAB20D23FB181A703B68DB785BB2C2
S2140146C0102213405AB20D23FB181B785BB213431A
S2140146D05BB2DAB20D23FB181A703B68DC6C3B68E0
S2140146E058780D23FA1801237321A04703001900F7
S2140146F03B68542299543B6854229B56002B03D0A6
S2140147000F23FB18FE221A700F23FB181B785BB2CF
S2140147101800BD4605B090BD2F48010090B585B084
S21401472000AF78600F23FC187B681800184B984779
S214014730030023700F23FB181B785BB2002B1FD1DD
S2140147407B689C6C7B6858780E23FA180123F3214A
S214014750A047030019007B68542299547B685422B1
S2140147609B56002B04D00F23FB18FE221A7007E07D
S2140147700E23FB181B7810221340DAB27B68DA701E
S2140147800F23FB181B785BB21800BD4605B090BD21
S2140147902F48010080B586B000AFF8600800110010
S2140147A07B600B23FB18021C1A700A23FB180A1CD9
S2140147B01A701723FB1800221A70FB68002B2AD0E8
S2140147C0FB681B780B22BA1812789A420DD9FB683F
S2140147D00B22BA1812781A707B6846229B5C01225B
S2140147E01343D9B27B6846229954FB681B780A2288
S2140147F0BA1812789A4212D2FB680A22BA181278AC
S2140148001A707B6846229B5C02221343D9B27B68EE
S2140148104622995403E01723FB18FF221A70172328
S214014820FB181B785BB21800BD4606B080BD80B58C
S21401483084B000AF78607B68002B0BD07B689B6CE4
S214014840002B07D07B68DB6C002B03D07B681B6DCD
S214014850002B04D10F23FB18FF221A7003E00F234D
S214014860FB1800221A700F23FB181B785BB2180086
S214014870BD4604B080BD0000F0B587B000AF0600AD
S21401488008003A601900FB1D321C1A70BB1D021C81
S2140148901A703B1D0A1C1A800F23FB1800221A707F
S2140148A0254BBA1D12781A70002200233A617B61EB
S2140148B015E03A697B690120002112184B413969DC
S2140148C03868411808781C498B18021C1A703A6916
S2140148D07B690120002112184B413A617B613B1D27
S2140148E01B889BB21C0000231D007B69AB42E0D3F2
S2140148F07B69AB4202D13B69A342DAD30F4B7622E6
S2140149001A700E4B0C4A5A603B1D1B8801339AB233
S2140149100A4BDA81094B64211800094B98470200BB
S2140149200F23FB181A700F23FB181B785BB21800B5
S214014930BD4607B0F0BDC0460046002040460020F8
S214014940495A010090B585B000AF040008003A60EE
S2140149501900FB1D221C1A70BB1D021C1A703B1D80
S2140149600A1C1A800F23FB1800221A70124B76229B
S2140149701A70114B3A1D12889A810F4B3A689A6049
S2140149800D4B0122DA810D4BBA1D12781A700A4BB3
S2140149900A4A5A60084B642232211800084B98478D
S2140149A002000F23FB181A700F23FB181B785BB24B
S2140149B01800BD4605B090BD4046002000460020C8
S2140149C0215B010080B584B000AF78600023FB60F6
S2140149D00EE00023BB6003E0C046BB680133BB604A
S2140149E0BA6899235B009A42F6DDFB680133FB60E7
S2140149F0FA687B689A42ECD3C046BD4604B080BDD7
S214014A0090B583B000AF2B4B76225A70294B01220A
S214014A109A70284B284ADA64264B284A9A64254B12
S214014A20274A1A65234B19221A71FB1D00221A7098
S214014A30FC1D204B1800234B9847030023701D4B89
S214014A403822022199541B4B3A2203219954194BBF
S214014A50392204219954174B3B2202219954154BB4
S214014A603E2201219954134B4022A021490099521C
S214014A70104B4222962199520E4B44220121995401
S214014A80BB1DDF221A70BB1D1B789BB2FC1D094A99
S214014A90110018000C4B984703002370FC1D054BB2
S214014AA018000A4B984703002370C046BD4603B062
S214014AB090BDC04650460020794801004549010096
S214014AC0C5490100412E0100D1310100E93601003E
S214014AD080B582B000AF2A4B98472A4B00221A6055
S214014AE0294B00221A60294B00221A60284A3B1DD6
S214014AF011001800274B98473B1D1B881800264BB2
S214014B009847234A254B11001800254B9847030068
S214014B101A00FB1D1A70214B04229A5E214B1000CD
S214014B209847021C204B2149101C9847031C1A1C4D
S214014B30144B1A60194B9A681D4B10009847021CBB
S214014B40194B1A49101C9847031C1A1C0F4B1A6064
S214014B50124BDA68164B10009847021C124B154987
S214014B60101C9847031C1A1C074B1A600B4B1B6939
S214014B701A00114B1A60C046BD4602B080BDC04641
S214014B80014A010094030020980300209C030020A2
S214014B905046002009380100C5490100A8460020FA
S214014BA0D5380100D55A03008D5203000000C842D3
S214014BB0755B030000007A44A003002080B500AFB7
S214014BC0024B1B68181CBD4680BDC04694030020DE
S214014BD080B500AF024B1B68181CBD4680BDC046A1
S214014BE09803002080B500AF024B1B68181CBD4619
S214014BF080BDC0469C03002080B500AF024B1B68F9
S214014C001800BD4680BDC046A003002080B500AF99
S214014C10BFF34F8F024B034ADA60BFF34F8FFEE7B5
S214014C2000ED00E00400FA0580B500AF024B98479E
S214014C30C046BD4680BDC0460D4C010080B586B05D
S214014C4000AF78609C4B18009C4B98479C4B180013
S214014C509A4B98479B4B1800984B98479A4B1800CD
S214014C60964B9847994B1800944B9847984B1800C9
S214014C70924B9847974B1800904B9847964B1800C5
S214014C808E4B98471723FB1800221A70934B180077
S214014C90934B9847032200210120924B984702002C
S214014CA0914B1A60904B1B68002B07D18F4B190054
S214014CB003208F4B984700208E4B98470C23FB18F8
S214014CC018008D4B98470C23FB181B780A2B04D031
S214014CD00C23FB181B780D2B37D1884B1800804B03
S214014CE09847874B00221A70864B00221A70864915
S214014CF0864B31221800864B9847844B312200217F
S214014D0099548449804B64221800834B98470300CA
S214014D103B61804B6322002199547E4B1800704BF7
S214014D2098473B69002BECD11723FB1800221A7019
S214014D30754B322200211800784B9847754B642238
S214014D4000211800754B9847B5E06D4B1B78002B7A
S214014D5059D06C4B1B78032B0CD86A4B1B785A1C0A
S214014D60D1B2684A11701A000C23FB1819786C4BE3
S214014D70995405E0624B00221A70624B00221A70A9
S214014D80604B1B78012B99D9664A654B11001800B8
S214014D90654B9847031E2FD064495B4B1B221800B6
S214014DA0634B9847584B18004D4B98471723FB18F1
S214014DB000221A70544B322200211800574B984794
S214014DC05249514B31221800514B98474E4B18000F
S214014DD0584B98470300302B06D84C4B1800554BC0
S214014DE098470300DAB200E031221723FB181A7045
S214014DF0454B18003A4B9847414B00221A70414BDD
S214014E0000221A705AE70C23FB181B780D2B00D1D1
S214014E1054E70C23FB181B78082B04D00C23FB1833
S214014E201B787F2B1CD10823FB18434A12681A6093
S214014E300823FB1818002A4B98471723FB181B78E2
S214014E40002B37D01723FB181A781723FB18013AC3
S214014E501A701723FB181B782B4A0021D15429E01E
S214014E600C23FB181B781B2B06D1254B01221A702D
S214014E70244B00221A7021E71723FB181B78312BCD
S214014E800ED81723FB181B780C22BA1811781E4A65
S214014E90D1541723FB181A781723FB1801321A70FE
S214014EA00C23FB1800225A700C23FB1818000C4B1D
S214014EB0984703E7C04601E72C910300B9A2010019
S214014EC01C9103008C9103005C9103006C9103001C
S214014ED03C9103004C9103007C910300B08D0300CC
S214014EE0E501020085C80100BC460020D88F0300FA
S214014EF0D102020071E601003D4F0100F88F030068
S214014F00B4030020B5030020EC030020B803002002
S214014F10337D03002004002029A301004B79030000
S214014F2084040020FC8F03004D7C030000900300E6
S214014F30097C0300037D03000890030080B584B05C
S214014F4000AF78607B6818000C4B98470300FB6045
S214014F500DE00B4B1A6801235B4219001000094B48
S214014F6098477B681800054B98470300FB60FB6871
S214014F700133EED0C046BD4604B080BD81020200BA
S214014F80BC4600203DD8010080B500AF0A4B002288
S214014F901A600A4B1B68084A11001800084B98470C
S214014FA0054B1B68002B03D0064B802252051A6066
S214014FB0C046BD4680BDC04688040020BC460020D1
S214014FC0B5D1010004ED00E0B0B58AB002AFF860DB
S214014FD0B9607A60494B98470300FB611B23FA18B6
S214014FE0FB6911001800464B98471B23FB181B78DA
S214014FF0002B64D0434B062200211800424B9847F1
S214015000404AFB6911001800404B98473D4B00226F
S2140150109B5E18003E4B9847021C3E4B1A60394B6C
S21401502002229B5E18003A4B9847021C394B5A6085
S214015030344B04229B5E1800354B9847021C354BB7
S2140150409A60344B1A68344B101C98470500314B54
S2140150505A68314B101C984704002E4B9A682E4B09
S214015060101C984703002D4AB968F868019300940C
S2140150702B002B4CA047274B1A68274B101C984730
S21401508003001AB21423FB181A80224B5A68224BCB
S214015090101C984703001AB21423FB185A801D4BA4
S2140150A09A681D4B101C984703001AB21423FB186C
S2140150B09A801423FB1818001A4B984719E01A4ACD
S2140150C0B968FB681800164B98471423FB18012291
S2140150D052421A801423FB18022252425A80142389
S2140150E0FB18032252429A801423FB1818000D4B1A
S2140150F0984700231800BD4608B0B0BD516A0100AC
S214015100FD6401008C0400204B7903003965010021
S2140151108D5D010094040020955A03000C90030055
S214015120A57B0300859801003090030090B587B0F9
S21401513000AFF860B9607A601723FB181B221A705B
S2140151401723FB181B78084A08480F21084CA0476C
S214015150064AB968FB681800054B984700231800F3
S214015160BD4607B090BDC04658900300A40300207A
S214015170A57B030080B584B000AFF860B9607A60A3
S2140151800220034B984700231800BD4604B080BD9B
S2140151905198010080B584B000AFF860B9607A60BC
S2140151A0034B984700231800BD4604B080BDC04697
S2140151B0294C010090B58FB000AFF860B9607A60F5
S2140151C01823FB1800221A701823FB1800225A70A5
S2140151D01823FB1800221A701823FB1800225A7095
S2140151E01C23FB1800221A701C23FB181422BA1861
S2140151F09A601C23FB180122DA811C23FB18182253
S214015200BA185A601C23FB1801229A812A4B1800EF
S2140152102A4B984700237B6342E07B6B284A294848
S2140152200F21294CA047274B1800244B98470023F1
S2140152303B632BE07B6BDAB23B6BDBB2D318DAB2A3
S2140152401C23FB181A701C23FB1864226421180007
S2140152501E4B98470300FB62FB6A002B0CD11C23F4
S214015260FB181B781A4A17480F21174CA047154BF5
S2140152701800124B984706E0124B164A1A60114B5B
S21401528018000E4B98473B6B01333B633B6B0F2B70
S214015290D0DD114B1800094B98477B6B10337B63AD
S2140152A07B6B7F2BB9DD0C4B1800044B9847002312
S2140152B01800BD460FB090BDD8900300E50102006E
S2140152C00C910300A4030020A57B0300355C0100BC
S2140152D01491030058202000F88F030080B584B095
S2140152E000AFF860B9607A60034B98470023180056
S2140152F0BD4604B080BDC046556C010080B584B083
S21401530000AFF860B9607A60034B98470023180035
S214015310BD4604B080BDC046D16C010080B584B0E6
S21401532000AFF860B9607A60034B98470023180015
S214015330BD4604B080BDC0467D70010080B588B012
S21401534000AF7860334B1800334B98470022142186
S2140153500220324B98470200314B1A60002203218B
S21401536002202E4B984702002E4B1A602C4B1B68CE
S214015370002B03D02B4B1B68002B03D12A4B1800A4
S214015380254B9847294B00221A70284B1B78012B76
S2140153901DD0022B35D0002B2FD1214B1B680C22A0
S2140153A0B91800221800224B98470300012B2AD176
S2140153B0204B19000120204B98470C23FB1818009E
S2140153C01E4B9847194B01221A70C0461BE01C4B16
S2140153D09847031E19D01B4B9847030018001A4B19
S2140153E098470300012B04D0184B19000120124BDB
S2140153F098470E4B00221A7007E00C4B00221A70D9
S21401540004E0C04602E0C04600E0C0462820104B3B
S2140154109847BAE79C910300E501020085C80100A0
S214015420A0040020A4040020BC910300C046002074
S214015430E5D30100E8910300D10202004580010096
S2140154408180010095800100DD9801001092030023
S21401545091E5010080B582B000AF0200FB1D1A7015
S214015460064BFA1D127811001F220A4001219140B5
S2140154700A001A60C046BD4602B080BD00E100E0E9
S21401548080B584B000AF78607B681B68FB60FB6802
S214015490DB69072213405A1E9341DBB21800BD4652
S2140154A004B080BD80B582B000AF7860C0467B682E
S2140154B01800044B9847031EF9D1C046BD4602B0FA
S2140154C080BDC0468154010080B582B000AF7860CF
S2140154D07B6864221A607B681B4A5A607B680022DC
S2140154E09A607B6800221A737B6800221A767B68B2
S2140154F0802292031A617B6801225242DA827B681B
S214015500012252429A827B680022DA617B6800227D
S2140155101A627B682422002199547B6800229A62D1
S2140155207B682C22002199547B682D2200219954F6
S2140155307B682E22002199547B68D7221A86C046A2
S214015540BD4602B080BDC046480D000080B584B09F
S21401555000AF78607B681B68BB600023FB607B68DC
S2140155601800144B9847BB681B6802221A43BB6895
S2140155701A607B681B6818000F4B984703001800D9
S2140155800E4B98470CE0FB680133FB607B68DB88B9
S2140155901A00FB689A4203D8BB6810225A8306E0B9
S2140155A0BB685B8B9BB21A0010231340EBD0BD4641
S2140155B004B080BDA5540100859A0200555401002F
S2140155C080B582B000AF78600A00FB1C1A707B6859
S2140155D05B7EDBB25AB2FB1C1B78012199400B00A3
S2140155E05BB213435BB2DAB27B685A76C046BD46FD
S2140155F002B080BD90B591B000AF0023FB633A23A3
S214015600FB1800221A703B1D1800214B98473B1DC2
S214015610204ADA613B1D204A1A623B1DFA2292009B
S214015620DA823B23FB1803221A701EE03A23FC1889
S2140156303A1D1A491A4B18001A4B98470300237053
S2140156403A23FB181B78002B04D13A23FB181B784E
S214015650FB630FE0124B1800134B98473B23FB18D4
S2140156601A783B23FB18013A1A703B23FB181B7868
S214015670002BDBD1FB6B002B04D1094B18000B4B25
S214015680984700E0C046FB6B1800BD4611B090BDC0
S214015690C954010002000800020009000008004287
S2140156A0C8460020199F01004DA001004D5501007C
S2140156B080B584B000AF78600E4B00221A700D4B97
S2140156C001229A600023FB600B4B1B680C22BA1860
S2140156D011001800094B9847094B00221A70FB6805
S2140156E0002B03D0074B802252051A60C046BD46E8
S2140156F004B080BDAC040020F0460020B5D1010006
S214015700A804002004ED00E080B584B000AF786006
S2140157100E4B00221A700D4B01229A600023FB608B
S2140157200B4B1B680C22BA1811001800094B98473E
S214015730094B00221A70FB68002B03D0074B80220E
S21401574052051A60C046BD4604B080BDAC040020B8
S214015750F0460020B5D10100A804002004ED00E0C9
S21401576080B584B000AF78600E4B00221A700D4BE6
S21401577001225A600023FB600B4B1B680C22BA18EF
S21401578011001800094B9847094B01221A70FB6853
S214015790002B03D0074B802252051A60C046BD4637
S2140157A004B080BDAC040020F0460020B5D1010055
S2140157B0A804002004ED00E080B500AF1149124BAB
S2140157C000221800114B98470F4B00211800104B70
S2140157D0984710490C4B012218000C4B98470A4B6E
S2140157E0012118000A4B98470B49074B0222180063
S2140157F0064B9847044B02211800054B9847C046B4
S214015800BD4680BDB1560100C846002009290100E9
S214015810C1550100095701006157010080B582B0EA
S21401582000AF00237B60144B984703007B607B68C6
S214015830002B1AD1114B98470120114B98470200B3
S214015840104B1A600322002101200F4B98470200DB
S2140158500E4B1A600B4B1B68002B03D00B4B1B68BF
S214015860002B03D106237B6000E0C0467B6818004E
S214015870BD4602B080BDC046F5550100B9570100CE
S214015880EDCA0100C446002085C80100F04600208C
S21401589090B585B000AF78600023FB607B68002B75
S2140158A003D07B685B68002B03D108235B42FB6057
S2140158B01FE07B681B789AB2104B1A807B685A6887
S2140158C00E4B5A607B68DA890C4B5A800B23FC1806
S2140158D00A4A0B4B110018000A4B98470300237025
S2140158E00B23FB181B78002B03D006235B42FB60BF
S2140158F0C046FB681800BD4605B090BDF4460020C2
S214015900C84600208D2B010090B585B000AF7860A9
S2140159100023FB607B68002B03D07B685B68002B51
S21401592003D108235B42FB601FE07B681B789AB2B9
S214015930104B1A807B689A680E4B5A607B689A896E
S2140159400C4B5A800B23FC180A4A0B4B110018000B
S2140159500A4B9847030023700B23FB181B78002B78
S21401596003D006235B42FB60C046FB681800BD46B9
S21401597005B090BDF4460020C8460020A92A0100C3
S21401598090B583B000AF00237B60094B18680023F5
S21401599000220021074CA0470300012B02D014234C
S2140159A05B427B607B681800BD4603B090BDC04675
S2140159B0C44600202DCB010080B584B000AF7860CE
S2140159C00023FB60084B1B687A6811001800074B20
S2140159D098470300012B02D01D235B42FB60FB6846
S2140159E01800BD4604B080BDC44600203DD8010065
S2140159F080B584B000AF78600023FB60044B1A6862
S214015A007B681A60FB681800BD4604B080BDC046BE
S214015A10F046002080B500AF024B1B781800BD464B
S214015A2080BDC046A804002080B582B000AF020049
S214015A30FB1D1A70034BFA1D12781A70C046BD463C
S214015A4002B080BDA804002080B584B000AF7860A5
S214015A5039600023FB600023BB6096235B001800BF
S214015A60284B98470300FB60FB68002B38D10823BE
S214015A70FB181800244B98470300FB60FB68002BBB
S214015A8030D17B681800214B98470300FB60FB6808
S214015A90002B2AD1BB683A68110018001C4B9847A6
S214015AA00300012B11D11B4B9847031E11D0002078
S214015AB0194B9847FB68002B03D021235B42FB6000
S214015AC014E003235B42FB6010E003235B42FB60B0
S214015AD00CE0124B98470200FB681343FB6002E0A0
S214015AE0C04600E0C046FB6807E0C0460B4B98473F
S214015AF00200FB681343FB60FB681800BD4604B058
S214015B0080BDC046B9590100F15901009158010004
S214015B103DD80100155A0100295A0100815901009A
S214015B2080B586B000AFF860B9607A6000237B610B
S214015B3000233B6196235B001800354B9847030012
S214015B407B617B69002B55D11023FB181800314B64
S214015B50984703007B617B69002B4DD1FB681800D9
S214015B602D4B984703007B617B69002B47D13B692E
S214015B707A6811001800294B98470300012B18D1A9
S214015B80274B9847031E06D00020264B9847032331
S214015B905B427B6134E0BB681800234B9847FB6887
S214015BA01800224B984703007B617B69002B04D0C9
S214015BB026E003235B427B6122E03B697A681100A1
S214015BC01800164B98470300012B0AD1144B98472F
S214015BD0031E0AD00020134B984703235B427B61C8
S214015BE00EE003235B427B610AE0114B98470300FA
S214015BF07B6102E0C04600E0C0467B6903E0C04628
S214015C000B4B98477B691800BD4606B080BDC04661
S214015C10B9590100F1590100915801003DD8010020
S214015C20155A0100295A010091E5010009590100A0
S214015C308159010080B586B000AFF860B9607A601E
S214015C4000237B6100233B6196235B001800244BF5
S214015C50984703007B617B69002B33D11023FB1827
S214015C601800204B984703007B617B69002B2BD1E2
S214015C70FB6818001C4B984703007B617B69002B6F
S214015C8025D13B697A6811001800184B9847030024
S214015C90012B13D1164B9847031E06D00020154B37
S214015CA0984703235B427B6112E0BB681800124BE6
S214015CB09847124B984703007B6106E003235B423B
S214015CC07B6105E0C04600E0C0467B6903E0C04654
S214015CD00A4B98477B691800BD4606B080BDC04692
S214015CE0B9590100F1590100915801003DD8010050
S214015CF0155A0100295A010091E501008159010058
S214015D00B0B586B000AFF86008007A6019000B23C2
S214015D10FB18021C1A700823FB180A1C1A80FB6861
S214015D205C68FB6898680823FB181D887A680B2353
S214015D30FB1819782B00A04703007B617B691800CC
S214015D40BD4606B0B0BDB0B586B000AFF86008007D
S214015D507A6019000B23FB18021C1A700823FB1823
S214015D600A1C1A80FB681C68FB6898680823FB18E5
S214015D701D887A680B23FB1819782B00A0470300AF
S214015D807B617B691800BD4606B0B0BD80B582B0A8
S214015D9000AF0200BB1D1A80BB1D00229A5E064B97
S214015DA010009847021C054B0549101C9847031C18
S214015DB0181CBD4602B080BDD55A03001D55030010
S214015DC023DB793D90B585B000AF78600A00FB1CF7
S214015DD01A700823FA18786801231021124CA0477C
S214015DE00300FB60FB68002B19D1FB1C1B78032208
S214015DF01340DAB20823FB1803210A4090001A78F0
S214015E000C218A43111C021C0A431A700823FA1833
S214015E10786801231021054CA0470300FB60FB684E
S214015E201800BD4605B090BD015D0100475D01004B
S214015E3090B587B000AF78600A00FB1C1A70172374
S214015E40FB18FA1C12781A700C23FA187B681100DA
S214015E501800A44B984703003B613B69002B00D018
S214015E6013E10C23FB181B78DB07DB0FDAB20C23DC
S214015E70FB181B789B07DB0FDBB21343DAB20C234C
S214015E80FB181B785B07DB0FDBB21343DAB20C237C
S214015E90FB181B781B07DB0FDBB21343DAB20C23AC
S214015EA0FB181B78DB06DB0FDBB21343DAB20C23DD
S214015EB0FB181B789B06DB0FDBB21343DAB20C230D
S214015EC0FB181B785B06DB0FDBB21343DAB20C233D
S214015ED0FB181B781B06DB0FDBB21343DAB20C236D
S214015EE0FB185B78DB07DB0FDBB21343DAB20C235C
S214015EF0FB185B789B07DB0FDBB21343DAB20C238C
S214015F00FB185B785B07DB0FDBB21343DAB20C23BB
S214015F10FB185B781B07DB0FDBB21343DAB20C23EB
S214015F20FB185B78DB06DB0FDBB21343DAB20C231C
S214015F30FB185B789B06DB0FDBB21343DAB20C234C
S214015F40FB185B785B06DB0FDBB21343DAB20C237C
S214015F50FB185B781B06DB0FDBB21343DBB2012BAE
S214015F6000D092E00B23FA187B68110018005E4BF4
S214015F70984703003B613B69002B00D085E00B236B
S214015F80FB181B78012B17D002DC002B05D076E01E
S214015F90022B29D0032B48D071E0FB1C1B78002B69
S214015FA004D11723FB1801221A706EE01723FB1881
S214015FB0FA1C12781A7068E0FB1C1B78002B04D1BF
S214015FC01723FB1802221A705FE0FB1C1B78012BBB
S214015FD004D11723FB1802221A7056E01723FB1868
S214015FE0FA1C12781A7050E0FB1C1B78002B04D1A7
S214015FF01723FB1803221A7047E0FB1C1B78012BA2
S21401600004D11723FB1803221A703EE0FB1C1B78F1
S214016010022B04D11723FB1803221A7035E017232D
S214016020FB18FA1C12781A702FE0FB1C1B78002B49
S21401603004D11723FB1804221A7026E0FB1C1B78D8
S214016040012B04D11723FB1804221A701DE0FB1C38
S2140160501B78022B04D11723FB1804221A7014E0B4
S214016060FB1C1B78032B04D11723FB1804221A7080
S2140160700BE01723FB18FA1C12781A7005E0172399
S214016080FB18FA1C12781A70C0463B69002B08D11F
S2140160900823FA18786801231021144CA04703003E
S2140160A03B613B69002B18D11723FB181B780F2285
S2140160B01340DAB20823FB1810011A780F210A40A0
S2140160C0111C021C0A431A700823FA187868012367
S2140160D01021074CA04703003B613B691800BD46F1
S2140160E007B090BD0D69010061690100015D010005
S2140160F0475D010090B585B000AF78600A00FB1CD3
S2140161001A700823FA18786801231121124CA04747
S2140161100300FB60FB68002B19D1FB1C1B780722D0
S2140161201340DAB20823FB1807210A4090181A78A0
S2140161300E218A43111C021C0A431A700823FA18FE
S214016140786801231121054CA0470300FB60FB681A
S2140161501800BD4605B090BD015D0100475D010018
S21401616090B587B000AF78600A00FB1C1A70172341
S214016170FB18FA1C12781A700C23FA187B681100A7
S2140161801800A44B984703003B613B69002B00D0E5
S21401619013E10C23FB181B78DB07DB0FDAB20C23A9
S2140161A0FB181B789B07DB0FDBB21343DAB20C2319
S2140161B0FB181B785B07DB0FDBB21343DAB20C2349
S2140161C0FB181B781B07DB0FDBB21343DAB20C2379
S2140161D0FB181B78DB06DB0FDBB21343DAB20C23AA
S2140161E0FB181B789B06DB0FDBB21343DAB20C23DA
S2140161F0FB181B785B06DB0FDBB21343DAB20C230A
S214016200FB181B781B06DB0FDBB21343DAB20C2339
S214016210FB185B78DB07DB0FDBB21343DAB20C2328
S214016220FB185B789B07DB0FDBB21343DAB20C2358
S214016230FB185B785B07DB0FDBB21343DAB20C2388
S214016240FB185B781B07DB0FDBB21343DAB20C23B8
S214016250FB185B78DB06DB0FDBB21343DAB20C23E9
S214016260FB185B789B06DB0FDBB21343DAB20C2319
S214016270FB185B785B06DB0FDBB21343DAB20C2349
S214016280FB185B781B06DB0FDBB21343DBB2012B7B
S21401629000D092E00B23FA187B68110018005E4BC1
S2140162A0984703003B613B69002B00D085E00B2338
S2140162B0FB181B78012B17D002DC002B05D076E0EB
S2140162C0022B29D0032B48D071E0FB1C1B78002B36
S2140162D004D11723FB1801221A706EE01723FB184E
S2140162E0FA1C12781A7068E0FB1C1B78002B04D18C
S2140162F01723FB1802221A705FE0FB1C1B78012B88
S21401630004D11723FB1802221A7056E01723FB1834
S214016310FA1C12781A7050E0FB1C1B78002B04D173
S2140163201723FB1803221A7047E0FB1C1B78012B6E
S21401633004D11723FB1803221A703EE0FB1C1B78BE
S214016340022B04D11723FB1803221A7035E01723FA
S214016350FB18FA1C12781A702FE0FB1C1B78002B16
S21401636004D11723FB1804221A7026E0FB1C1B78A5
S214016370012B04D11723FB1804221A701DE0FB1C05
S2140163801B78022B04D11723FB1804221A7014E081
S214016390FB1C1B78032B04D11723FB1804221A704D
S2140163A00BE01723FB18FA1C12781A7005E0172366
S2140163B0FB18FA1C12781A70C0463B69002B08D1EC
S2140163C00823FA18786801231121144CA04703000A
S2140163D03B613B69002B18D11723FB181B780F2252
S2140163E01340DAB20823FB1810011A780F210A406D
S2140163F0111C021C0A431A700823FA187868012334
S2140164001121074CA04703003B613B691800BD46BC
S21401641007B090BD0D69010061690100015D0100D1
S214016420475D010090B585B000AF78600A00FB1C9F
S2140164301A700823FA18786801231221124CA04713
S2140164400300FB60FB68002B19D1FB1C1B780122A3
S2140164501340DAB20823FB1801210A4090011A788A
S21401646040218A43111C021C0A431A700823FA1899
S214016470786801231221054CA0470300FB60FB68E6
S2140164801800BD4605B090BD015D0100475D0100E5
S21401649090B585B000AF78600A00FB1C1A7008231F
S2140164A0FA18786801231521124CA0470300FB60F7
S2140164B0FB68002B19D1FB1C1B7801221340DAB2B2
S2140164C00823FB1801210A40D0001A7808218A43C4
S2140164D0111C021C0A431A700823FA187868012353
S2140164E01521054CA0470300FB60FB681800BD465C
S2140164F005B090BD015D0100475D010090B585B016
S21401650000AF786039600823FA18786801231E21E5
S214016510084CA0470300FB600823FB181B78DB0729
S214016520DB0FDBB21A003B681A70FB681800BD4629
S21401653005B090BD015D010090B587B000AF7860F1
S21401654039600C23FA18786806232821264CA047C0
S21401655003007B610C23FB185B781AB23B681A8038
S2140165603B6800229B5E9BB21B029AB20C23FB186F
S2140165701B789BB2D3189BB21AB23B681A803B6851
S21401658002330C22BA18D27812B21A803B68023350
S2140165903A6802320021525E92B2120291B20C2285
S2140165A0BA18927892B28A1892B212B21A803B68DE
S2140165B004330C22BA18527912B21A803B6804339B
S2140165C03A6804320021525E92B2120291B20C2253
S2140165D0BA18127992B28A1892B212B21A807B69EC
S2140165E01800BD4607B090BD015D010090B585B0AD
S2140165F000AF78600A00FB1C1A700823FA18786846
S21401660001230121114CA0470300FB60FB68002B0E
S21401661017D1FB1C1B7803221340DAB20823FB18A0
S21401662090011A783F210A40111C021C0A431A7075
S2140166300823FA18786801230121054CA0470300B6
S214016640FB60FB681800BD4605B090BD015D01000A
S214016650475D010090B585B000AF786039603A6853
S214016660786801230F21044CA0470300FB60FB68F8
S2140166701800BD4605B090BD015D010090B585B01E
S21401668000AF78600A00FB1C1A700823FA187868B5
S21401669001231221124CA0470300FB60FB68002B6C
S2140166A019D1FB1C1B7801221340DAB20823FB1810
S2140166B001210A4010001A7801218A43111C021C8C
S2140166C00A431A700823FA18786801231221054C28
S2140166D0A0470300FB60FB681800BD4605B090BDEF
S2140166E0015D0100475D010090B585B000AF78609F
S2140166F039600823FA18786801231221084CA0474C
S2140167000300FB600823FB181B78DB07DB0FDBB2FB
S2140167101A003B681A70FB681800BD4605B090BDAC
S214016720015D010090B585B000AF78600A00FB1CE2
S2140167301A700823FA18786801231021124CA04712
S2140167400300FB60FB68002B19D1FB1C1B780122A0
S2140167501340DAB20823FB1801210A4090181A7870
S21401676002218A43111C021C0A431A700823FA18D4
S214016770786801231021054CA0470300FB60FB68E5
S2140167801800BD4605B090BD015D0100475D0100E2
S21401679090B585B000AF78600A00FB1C1A7008231C
S2140167A0FA18786801231721254CA0470300FB60DF
S2140167B0FB68002B3FD1FB1C1B781B09DBB21A1CA4
S2140167C001231340DAB20823FB1801210A40900086
S2140167D01A7804218A43111C021C0A431A70FB1CF6
S2140167E01B785B09DBB21A1C01231340DAB20823BB
S2140167F0FB1801210A4010011A7810218A43111C46
S214016800021C0A431A70FB1C1B7807221340DAB2DB
S2140168100823FB1850011A781F210A40111C021C7C
S2140168200A431A700823FA18786801231721054CC1
S214016830A0470300FB60FB681800BD4605B090BD8D
S214016840015D0100475D010090B587B000AF78603B
S2140168500A00FB1C1A700C23FA1878680123182109
S214016860284CA04703007B617B69002B1CD1FB1CD5
S2140168701B78DB09DBB21A1C01231340DAB20C23A6
S214016880FB1801210A4090181A7802218A43111C2C
S214016890021C0A431A700C23FA187868012318217F
S2140168A0194CA04703007B617B69002B08D110239C
S2140168B0FA18786801236221124CA04703007B6115
S2140168C07B69002B19D1FB1C1B7803221340DAB21B
S2140168D01023FB1803210A40D0001A7818218A4396
S2140168E0111C021C0A431A701023FA187868012337
S2140168F06221054CA04703007B617B691800BD46F9
S21401690007B090BD015D0100475D010090B585B0FF
S21401691000AF786039607B68022118000E4B9847FB
S2140169200300FB60FB68002B07D13A6878680223F6
S21401693046210A4CA0470300FB60FB68002B06D1EA
S2140169407B6800211800044B98470300FB60FB6836
S2140169501800BD4605B090BDED650100015D010062
S21401696090B585B000AF786039607B680221180069
S214016970214B98470300FB60FB68002B08D10823D6
S214016980FA18786801235F211C4CA0470300FB60BE
S214016990FB68002B2BD10823FB181B78DB069B0F0B
S2140169A0DBB2012B0CD002DC002B05D014E0022B4D
S2140169B00AD0032B0CD00FE03B6800221A700FE0C0
S2140169C03B6801221A700BE03B6802221A7007E04E
S2140169D03B6803221A7003E03B6800221A70C04627
S2140169E07B6800211800044B98470300FB60FB6896
S2140169F01800BD4605B090BDED650100015D0100C2
S214016A0080B584B000AFF86008007A6019000B23E7
S214016A10FB18021C1A700823FB180A1C1A80002394
S214016A201800BD4604B080BD80B584B000AFF860E4
S214016A3008007A6019000B23FB18021C1A70082341
S214016A40FB180A1C1A8000231800BD4604B080BD3E
S214016A5080B500AF014B1800BD4680BD1400002074
S214016A6080B582B000AF00237B60234B0121180064
S214016A70224B984703007B60FA1C1F4B110018003D
S214016A801F4B984702007B6813437B60FB1C1B78F7
S214016A90002BF1D1184B802118001A4B9847164B42
S214016AA001211800184B9847134B00211800174B6B
S214016AB09847114B01211800154B98470E4B0121A1
S214016AC01800144B98470C4B00211800124B98479E
S214016AD0094B06211800114B9847074B0421180053
S214016AE00F4B9847044B012118000E4B98477B68C3
S214016AF01800BD4602B080BD140000207D6601006E
S214016B00E9660100496801002564010091640100FD
S214016B10315E010061610100C55D0100F5600100A3
S214016B20916701002567010080B584B000AF0200BF
S214016B30FB1D1A700F23FB18FA1D1278D2091A7062
S214016B400E23FB18FA1D127852091A700D4BBB6002
S214016B500F23FB181B78002B0FD10F23FB181B7874
S214016B609B0010229446BC446344083B1A680E23DB
S214016B70FB181B78DB01D31800E000231800BD4684
S214016B8004B080BD0044004180B582B000AF020071
S214016B90FB1D1A70FB1D1B781800034B984703005A
S214016BA01800BD4602B080BD296B010080B582B0D9
S214016BB000AF78607B6800221A707B6801225A70E9
S214016BC07B6800229A70C046BD4602B080BD0000B8
S214016BD080B584B000AF0200FB1D1A70BB1D0A1CF5
S214016BE01A70FB1D1B7818000D4B98470300FB60BD
S214016BF0FB1D1B781F22134001229A401300BB6025
S214016C00BB1D1B78002B03D0FB68BA689A6102E0B3
S214016C10FB68BA685A61C046BD4604B080BDC0462E
S214016C20896B010080B582B000AF3B1D1800074B91
S214016C3098473B1D01221A703B1D19000320044B87
S214016C409847C046BD4602B080BDC046AD6B010048
S214016C50B58D020080B582B000AF00237B600021B5
S214016C600320164B984700233B6016E07B68042BF5
S214016C7006D101210320114B984700237B6003E0D6
S214016C80002103200D4B984701200D4B98477B6848
S214016C9001337B603B6801333B603B68094A9342A2
S214016CA0E4DD00210320054B9847074B1A78074B74
S214016CB01A70C046BD4602B080BDC046D16B010009
S214016CC091E50100E70300002000002021000020DC
S214016CD080B582B000AF00237B6000210320164BF5
S214016CE0984700233B6016E07B68042B06D1012100
S214016CF00320114B984700237B6003E0002103200B
S214016D000D4B984709200D4B98477B6801337B60F4
S214016D103B6801333B603A682C23FF339A42E3DD3C
S214016D2000210320044B9847054B1A78054B1A702F
S214016D30C046BD4602B080BDD16B010091E50100A1
S214016D40C00400202100002080B500AF024B1B7854
S214016D501800BD4680BDC0462100002080B582B027
S214016D6000AFFB1C00221A70114B2E221A70104B1A
S214016D70104A5A600E4B0222DA810D4BFA1C9A60B9
S214016D800B4B01229A810A4B6422002118000A4B00
S214016D90984703007B607B68002B03D0074B1800E5
S214016DA0074B9847FB1C1B781800BD4602B080BDF8
S214016DB00047002040920300215B0100049303007A
S214016DC0E501020080B584B000AF78600A00FB1CC4
S214016DD01A70FB1C1B78002B01D1002326E0082328
S214016DE0FB18144A12881A80134B2E221A70124B63
S214016DF00822BA185A60104B0222DA810E4B7A68C2
S214016E009A60FB1C1B789AB20B4B9A810A4B642240
S214016E1000211800094B98470300FB60FB68002B14
S214016E2003D0074B1800074B9847FB681800BD4670
S214016E3004B080BD2893030000470020215B0100B9
S214016E4004930300E5010200B0B586B000AF05006B
S214016E500C0010001900FB1D2A1C1A70BB1D221CF9
S214016E601A707B1D021C1A703B1D0A1C1A7008231F
S214016E70FB180E221A700823FB1804225A700823E6
S214016E80FB1800229A700823FB180022DA700823E8
S214016E90FB187A1D12781A710823FB18BA1D12788E
S214016EA05A710823FB183A1D12789A71FB1D1B783C
S214016EB09BB21622BA18191C0B1CDB185B18138020
S214016EC01623FB181B881B0A9BB2DAB20823FB1891
S214016ED09A701623FB181B88DAB20823FB18DA709F
S214016EE0094B0822BA185A60074B0722DA81064B6B
S214016EF064211800054B984703003B613B69180065
S214016F00BD4606B0B0BDC04600470020495A010044
S214016F1080B582B000AF3B000A4A12881A800A4B3D
S214016F203A005A60084B0222DA81074B64211800A6
S214016F30064B984703007B607B681800BD4602B08D
S214016F4080BDC0462C93030000470020495A01002B
S214016F5080B584B000AF0200FB1D1A700F23FB182A
S214016F60FA1D1278D2091A700E23FB18FA1D127830
S214016F7052091A700D4BBB600F23FB181B78002BB0
S214016F800FD10F23FB181B789B0010229446BC449C
S214016F906344083B1A680E23FB181B78DB01D318E1
S214016FA000E000231800BD4604B080BD0044004147
S214016FB080B582B000AF0200FB1D1A70FB1D1B7866
S214016FC01800034B984703001800BD4602B080BD69
S214016FD0516F010080B582B000AF78607B680022F7
S214016FE01A707B6801225A707B6800229A70C0462C
S214016FF0BD4602B080BD000080B584B000AF02007F
S214017000FB1D1A70BB1D0A1C1A70FB1D1B7818008D
S2140170100D4B98470300FB60FB1D1B781F22134096
S21401702001229A401300BB60BB1D1B78002B03D0C6
S214017030FB68BA689A6102E0FB68BA685A61C046A2
S214017040BD4604B080BDC046B16F010080B582B0B8
S21401705000AF3B1D1800074B98473B1D01221A70D5
S2140170603B1D19000420044B9847C046BD4602B09C
S21401707080BDC046D56F0100B58D0200B0B582B0A7
S21401708000AF00237B60002104202E4B984700238D
S2140170903B604BE07B68042B33D101210420294B54
S2140170A0984700237B60284B18685968274C0022B4
S2140170B0274BA047031E05D0234A264B264C1360B8
S2140170C0546022E0204B5C681B68244D1A002300A4
S2140170D000202349A84703000C0018002100214C7A
S2140170E0214A224BA04703000C001A0023001B4C28
S2140170F000201B49A04703000C00134A136054608C
S21401710003E0002104200F4B98470F4B5C681B6877
S214017110174A18002100904703001800154B98479E
S2140171207B6801337B603B6801333B603B68124AF6
S2140171309342AFDD00210420024B9847C046BD466E
S21401714002B0B0BDF96F01002800002069510300AC
S214017150000034409A9999999999B93F21620300A0
S21401716000408F40896F0300381798CA3BE1CC3F37
S2140171701952030091E501000F27000080B584B085
S21401718000AF0200FB1D1A700F23FB18FA1D1278C0
S214017190D2091A700E23FB18FA1D127852091A70BA
S2140171A00D4BBB600F23FB181B78002B0FD10F2351
S2140171B0FB181B789B0010229446BC446344083B92
S2140171C01A680E23FB181B78DB01D31800E0002396
S2140171D01800BD4604B080BD0044004180B582B0B1
S2140171E000AF0200FB1D1A70FB1D1B781800034B35
S2140171F0984703001800BD4602B080BD7D710100AE
S21401720080B582B000AF78607B6800221A707B6818
S21401721001225A707B6800229A70C046BD4602B0B1
S21401722080BD000080B584B000AF0200FB1D1A705F
S214017230BB1D0A1C1A70FB1D1B7818000D4B9847C6
S2140172400300FB60FB1D1B781F22134001229A409E
S2140172501300BB60BB1D1B78002B03D0FB68BA680C
S2140172609A6102E0FB68BA685A61C046BD4604B03E
S21401727080BDC046DD71010080B584B000AF786086
S2140172807B681B68FB60FB68DB695A1E9341DBB2B7
S2140172901800BD4604B080BD80B582B000AF7860EE
S2140172A07B6801221A707B6800225A607B68002284
S2140172B09A607B68C0229203DA607B6800221A74A7
S2140172C07B6800225A747B6801229A747B680122CB
S2140172D0DA747B6800221A757B682422002199548F
S2140172E07B6818330C22002118000A4B98477B68EC
S2140172F0094A9A617B6800229A627B680022DA62F8
S2140173007B6800221A637B6800225A63C046BD462A
S21401731002B080BD4B790300A086010080B582B023
S21401732000AF78607B680A221A707B6800225A7068
S2140173307B6800229A70C046BD4602B080BD000040
S21401734080B584B000AF786039603B681A787B6896
S2140173501A703B685A787B685A703B689A787B68E3
S2140173609A700C23FB1818000B4B98470C23FB183C
S21401737001221A707B681B780C22BA1811001800BB
S214017380064B98477B681B7801211800044B9847E9
S214017390C046BD4604B080BD01720100B58D020035
S2140173A02572010080B584B000AF78607B681B68E9
S2140173B0FB60C0467B681800064B9847031EF9D150
S2140173C0FB681B6802221A43FB681A60C046BD466A
S2140173D004B080BD7972010080B584B000AF7860DA
S2140173E07B681B68FB60FB681B7EDBB21A0001230F
S2140173F013405A1E9341DBB21800BD4604B080BD4F
S21401740080B584B000AF78600A00BB1C1A807B6828
S2140174101B68FB607B6818000A4B984703001A003C
S21401742001235340DBB2002B01D0052306E0BB1C31
S2140174301B88DB05DA0DFB689A6200231800BD463F
S21401744004B080BDD973010080B582B000AF3B1D8A
S21401745018000F4B98473B1D01221A703B1D19005F
S21401746022200C4B98473B001800094B98473B1DC0
S21401747001221A703B0019001420064B984701217F
S2140174801420054B9847C046BD4602B080BDC04695
S21401749001720100B58D020025720100B0B588B0F9
S2140174A002AF04000800BA6019000E23FB18221C64
S2140174B01A800C23FB18021C1A80BB1D0A1C1A809A
S2140174C000237B6121E07B699BB21A1C9200D318D2
S2140174D09AB20E23FB181B88D3189BB218B27B698D
S2140174E0BA68D3181A78BB1D00241C5F0C23FB183E
S2140174F00021595E2823FB1800255B5F00932300BB
S214017500074CA0477B6901337B617B69BA68D31856
S2140175101B78002BD7D1C046BD4606B0B0BDC046CD
S21401752025750100B0B586B000AF05000C0010004F
S2140175301900BB1D2A1C1A803B1D221C1A80FB1C2D
S214017540021C1A703B000A1C1A800F23FB18FA1C37
S2140175501278203A1A70BB1D00229B5EA022D31A15
S214017560072B53DD3B1D00229B5E8022D31A072B7F
S2140175704CDD00237B6146E00F23FB181A780E23AF
S214017580F918244813009B009B18C2187B69D3186E
S2140175901B780B7000233B612FE00E23FB181A7833
S2140175A03B691A4113000122134011D07B699AB23C
S2140175B0BB1D1B88D31898B23B699AB23B1D1B882A
S2140175C0D31899B23B001B881A00134B984711E059
S2140175D07B699AB2BB1D1B88D31898B23B699AB2D5
S2140175E03B1D1B88D3189BB22822BA181288190093
S2140175F0094B98473B6901333B613B69072BCCDD5F
S2140176007B6901337B617B69042BB5DDC046BD46D2
S21401761006B0B0BD54930300CD7A010080B590B09A
S21401762000AF3B1D18001C4B98473B1D05221A70E6
S2140176303A1D1A4B11001800194B98470823FB18DE
S2140176401800184B98470823FB180022DA60082315
S214017650FB18154A9A620823FB18144ADA620823B3
S214017660FB18012252421A630823FB1801225242D8
S2140176705A630823FB180E4A9A610823FA180D4923
S2140176800D4B18000D4B98470B4B18000C4B9847A9
S214017690C046BD4610B080BD1D7301001C470020CA
S2140176A041730100997201000300220003002300C8
S2140176B0001BB700001C004210470020B1A40200C6
S2140176C0A573010080B582B000AF0200FB1D1A70E1
S2140176D0FB1D1B789AB2044B11001800034B984708
S2140176E0C046BD4602B080BD1047002001740100AF
S2140176F080B582B000AF0200FB1D1A700021142075
S2140177000B4B98470B490C4B012218000B4B984723
S214017710FB1D1B7818000A4B98470649064B0022AA
S2140177201800064B9847C046BD4602B080BDC0460D
S214017730257201001C4700201047002065A70200A3
S214017740C576010080B582B000AF0200FB1D1A703D
S214017750012114200B4B98470B490C4B01221800B2
S2140177600B4B9847FB1D1B7818000A4B9847064998
S214017770064B00221800064B9847C046BD4602B08D
S21401778080BDC046257201001C470020104700201E
S21401779065A70200C576010080B582B000AF020081
S2140177A0BB1D1A80012114200F4B98470F49104B1F
S2140177B0012218000F4B9847BB1D1B881B0A9BB262
S2140177C0DBB218000C4B9847BB1D1B88DBB21800B8
S2140177D0094B98470549064B00221800054B984768
S2140177E0C046BD4602B080BD257201001C47002080
S2140177F01047002065A70200C576010080B500AFDE
S214017800AA4B9847AA49AB4B00221800AA4B9847A7
S214017810AA4B1800AA4B98470120AA4B984732203A
S214017820A74B98471120A74B98470520A44B98478C
S214017830B120A44B98470120A34B98472C20A24B7C
S21401784098472D20A04B984701209D4B9847B22082
S2140178509C4B984701209C4B98472C209A4B984765
S2140178602D20994B98470120954B9847B320954B6F
S21401787098470120944B98472C20934B98472D20EE
S214017880914B98470120904B98472C208E4B984758
S2140178902D208D4B98470120894B9847B420894B62
S2140178A098470720884B98470120854B9847C0206A
S2140178B0844B98470A20844B98470220824B98476E
S2140178C08420814B984701207D4B9847C1207D4BF2
