:10000000502900201131000009320000093200009F
:1000100000000000000000000000000000000000E0
:100020000000000000000000000000000932000095
:10003000000000000000000009320000D1010000B3
:1000400009320000093200000932000009320000C4
:1000500009320000093200000932000009320000B4
:100060000932000091130000A9130000C113000021
:10007000D9130000F1130000091400000932000038
:100080000932000009320000093200000932000084
:1000900009320000000000000000000009320000EA
:1000A0000932000009320000093200000932000064
:1000B0000000000010B5064C2378002B07D1054B3B
:1000C000002B02D0044800E000BF0123237010BDC4
:1000D000700000200000000030410000084B10B507
:1000E000002B03D00749084800E000BF0748036819
:1000F000002B00D110BD064B002BFBD09847F9E731
:100100000000000074000020304100003041000079
:100110000000000080B582B000AF78607B68002BE3
:100120000CD0084B7A685A60064B00229A60C04691
:10013000044B1A6880235B021340F9D0C046BD46C9
:1001400002B080BD10E000E080B500AF00200F4B92
:10015000984702000E4B1A600D4B18680D4BFA229F
:100160009100984703001A00094B1A60084B186861
:10017000084BFA229100984703001A00064B1A60B8
:10018000064B05221A60C046BD4680BDC52C000046
:1001900000000020093500000400002010E000E00D
:1001A00080B582B000AF786004E0074B1B68180090
:1001B000064B98477B685A1E7A60002BF5D1C046E3
:1001C000BD4602B080BDC046000000201501000001
:1001D00080B500AF034B1B685A1C024B1A60C04627
:1001E000BD4680BD8C00002080B584B000AF020009
:1001F000FB1D1A700F23FB18FA1D1278D2091A7012
:100200000E23FB18FA1D127852091A700D4BBB60B1
:100210000F23FB181B78002B0FD10F23FB181B7823
:100220009B0010229446BC446344083B1A680E238A
:10023000FB181B78DB01D31800E000231800BD4633
:1002400004B080BD0044004180B582B000AF020020
:10025000FB1D1A70FB1D1B781800034B9847030009
:100260001800BD4602B080BDE901000080B582B033
:1002700000AF78607B6800221A707B6801225A7098
:100280007B6800229A70C046BD4602B080BD000067
:1002900080B584B000AF0200FB1D1A70BB1D0A1CA4
:1002A0001A70FB1D1B7818000D4B98470300FB606C
:1002B000FB1D1B781F22134001229A401300BB60D4
:1002C000BB1D1B78002B03D0FB68BA689A6102E063
:1002D000FB68BA685A61C046BD4604B080BDC046DE
:1002E0004902000080B582B000AF3B1D18000E4BE4
:1002F00098473B1D01221A703B1D190017200B4B1C
:100300009847012117200A4B98473B1D00221A707D
:100310003B1D01225A703B1D19003720034B9847A3
:10032000C046BD4602B080BD6D020000A10C0000B9
:100330009102000080B582B000AF074B7B607B6804
:100340001B7DDBB21A00012313405A1E9341DBB21E
:100350001800BD4602B080BD0040004180B582B0AB
:1003600000AF02003960FB1D1A70FB1D1B78012BCA
:100370000AD0022B0FD0002B14D10E4B0D4A9169DD
:100380003A680A439A610FE00A4B0A4AD1693A680F
:100390000A43DA6108E0074B064A116A3A680A43E1
:1003A0001A6201E0172300E000231800BD4602B0E6
:1003B00080BDC0460004004080B584B000AF7860C6
:1003C0002F4BFB60042101202E4B9847FB68202215
:1003D000FF321A832C4B984703001A000123534025
:1003E000DBB2002B01D0052345E07B681B781B02A4
:1003F0001A00C0239B001A407B685B78DB01190060
:10040000FF230B401A437B689B785B0019001E2377
:100410000B401A437B68DB789B0419008023DB02C6
:100420000B401A437B681B791B041900C0239B02F5
:100430000B401A43FB685A60FB689B685B035B0FC9
:10044000DBB21A00082393409AB2104B1A80FB6863
:100450009B689AB20D4B5A807B685A780B4B1A7185
:10046000FB681B8B9BB21A0080235B00134001D0FA
:10047000102300E000231800BD4604B080BDC04634
:10048000004000415D0300003503000090000020A3
:1004900080B582B000AF78607B681B7C002B0BD0EE
:1004A0007B689B685A1C7B68D968104B1000984782
:1004B0000B001A007B689A607B685B685A1C7B683B
:1004C000D9680A4B100098470B001A007B685A60E5
:1004D0007B685A687B689B68D31A5A425341DAB2E8
:1004E0007B681A74C046BD4602B080BD1536000058
:1004F00080B582B000AF78607B6800221A747B6898
:100500009B685A1C7B68D968054B100098470B0004
:100510001A007B689A60C046BD4602B080BDC046E6
:100520001536000080B584B000AF786039601420C3
:10053000094B98470300FB60FB687A681A60FB6808
:100540003A68DA60FB681800044B9847FB681800AB
:10055000BD4604B080BDC046BD3600006105000048
:1005600080B582B000AF78607B6800225A607B68FB
:1005700000229A607B6800221A74C046BD4602B011
:1005800080BD000080B582B000AF78600A00FB1C1F
:100590001A707B681A687B685B68D318FA1C12783B
:1005A0001A707B681800034B9847C046BD4602B0DE
:1005B00080BDC0469104000080B584B000AF786073
:1005C000396001235B42FB607B6818000D4B984744
:1005D00003001A0001235340DBB2002B0DD07B68CF
:1005E0001A687B689B68D3181A783B681A707B6816
:1005F0001800054B98470023FB60FB681800BD46B8
:1006000004B080BD0D060000F104000080B582B08A
:1006100000AF78607B681B7C01225340DBB2002B6B
:1006200007D07B685A687B689B689A4201D1012396
:1006300000E000231A1C01231340DBB21800BD4662
:1006400002B080BD80B582B000AF0200FB1D1A7001
:10065000064BFA1D127811001F220A400121914019
:100660000A001A60C046BD4602B080BD00E100E04D
:1006700080B582B000AF0200FB1D1A70074AFB1D57
:100680001B7819001F230B40012199400B00190012
:100690008023D150C046BD4602B080BD00E100E0DD
:1006A00080B584B000AF78607B681B68FB60FB6836
:1006B000DB695A1E9341DBB21800BD4604B080BD11
:1006C00080B582B000AF7860C0467B681800044BEC
:1006D0009847031EF9D1C046BD4602B080BDC04652
:1006E000A106000080B582B000AF78607B688022F0
:1006F000D2051A607B6800225A607B68FF221A814B
:100700007B6800229A727B680022DA727B689622EC
:1007100092011A627B682422012199547B68252268
:10072000012199547B682622002199547B68272255
:10073000002199547B6800229A627B6888225203C8
:10074000DA607B682C22002199547B682D220021DD
:1007500099547B6800221A637B6800225A637B6885
:1007600000229A637B680022DA637B6800225A6168
:100770007B6800221A827B680022DA767B6800227E
:100780001A767B6800221A777B6800225A767B688B
:1007900013229A767B6800225A77C046BD4602B083
:1007A00080BD000080B584B000AF78607B681B68B6
:1007B000FB607B681B681800094B98470300180012
:1007C000084B98477B681800074B9847FB681B68E5
:1007D00002221A43FB681A60C046BD4604B080BDC1
:1007E0004D13000045060000C106000080B584B02E
:1007F00000AF78607B681B68FB607B681B68180033
:100800000A4B984703001800094B98477B6818006B
:10081000084B9847FB681B68022293431A00FB6849
:100820001A60C046BD4604B080BDC0464D130000EE
:1008300071060000C106000080B582B000AF78608C
:100840000A00FB1C1A707B6831229B5C5AB2FB1CAD
:100850001B78012199400B005BB213435BB2D9B204
:100860007B6831229954C046BD4602B080BD00006D
:1008700080B582B000AF78600A00FB1C1A70C046D9
:10088000FB1C1B789AB27B6811001800044B984738
:10089000031EF5D100231800BD4602B080BDC0463E
:1008A000711A000080B584B000AF786039600E2303
:1008B000FB1800221A80C0460E23FA187B6811002C
:1008C0001800074B9847031EF6D10E23FB181B8810
:1008D000DAB23B681A70C046BD4604B080BDC0465F
:1008E000D51A000080B584B000AFF860B9607A60B6
:1008F0000D4BFA681A600D4B0D4A1A600D4B0E4AEB
:100900001A600E4B1B689B68002118000C4B98471F
:100910000A4B1B685B6800211800094B9847C046CA
:10092000BD4604B080BDC0464409002040090020F7
:10093000710800003C090020A50800000C00002000
:100940005538000080B500AF8023DA000F4B11004E
:1009500018000F4B984702000E4B1A608023DA00F4
:100960000D4B110018000A4B984702000B4B1A6000
:100970000B4B98470B4B98470B490C4B0122180027
:100980000B4B9847C046BD4680BDC0461C050020A5
:1009900025050000140100201C0100202009002072
:1009A0005D0A0000E50A000018010020E0000020B8
:1009B000911D000080B500AF034B1800034B984712
:1009C000C046BD4680BDC046E0000020ED070000E7
:1009D00080B584B000AF78607B68002B2AD00023FC
:1009E000FB600BE0154B18687A68FB68D3181B781E
:1009F0001900134B9847FB680133FB607B681800B4
:100A0000104B98470200FB689A42EBD80E4B01212D
:100A100018000E4B9847031E0CD1084B1B680C4A5C
:100A2000110018000B4B98470949074B0122180089
:100A3000094B9847C046BD4604B080BD2009002040
:100A400085050000C1390000E0000020D91D00002C
:100A50001C090020B9050000491D000080B590B0B8
:100A600000AF3B001800174B98473B00E1225202B1
:100A70001A623B00C4229203DA603B000122524218
:100A80001A633B00012252425A633B000E4A9A63AA
:100A90003B000E4ADA63C0463A000D490D4B180080
:100AA0000D4B9847031EF7D13A000949094B18002E
:100AB0000A4B9847074B1800094B9847C046BD465C
:100AC00010B080BDE506000003002A0003002B00E3
:100AD00000180042E0000020FD170000E5080000BB
:100AE000A507000080B500AF0C490D4B002218008F
:100AF0000C4B98470C490A4B01221800094B9847A8
:100B0000074B00211800094B9847054B012118009D
:100B1000064B9847C046BD4680BDC046A10B0000AD
:100B2000E0000020011D0000310B0000390800002A
:100B300080B584B000AF7860134B1800134B984712
:100B4000114B1B78082B0CD10C23FB1820221A7098
:100B50000C23FB1808225A700C23FB1818000B4BAF
:100B600098470B4B1A68084B1B7819001000094B6B
:100B700098470549084B01221800084B9847C04682
:100B8000BD4604B080BDC04618010020D109000058
:100B90001401002085050000E0000020911D0000E8
:100BA00080B582B000AF7860094B1B68094A11001C
:100BB0001800094B98470300013305D00549074B3E
:100BC00001221800064B9847C046BD4602B080BDC2
:100BD000200900201C090020B9050000E0000020C9
:100BE000491D000080B582B000AF104B1B68002B80
:100BF00012D1EFF310837B607B68002B09D172B6B2
:100C0000BFF35F8F0A4B00221A700A4B01221A7041
:100C100002E0084B00221A70044B1B685A1C034B5D
:100C20001A60C046BD4602B080BDC0469800002094
:100C3000080000209C00002080B500AF0B4B1B6813
:100C40005A1E0A4B1A60094B1B68002B0AD1084B2D
:100C50001B78DBB2002B05D0064B01221A70BFF3C4
:100C60005F8F62B6C046BD4680BDC046980000207A
:100C70009C0000200800002080B582B000AF7860A2
:100C80007B6880221A707B6800225A707B68012280
:100C90009A707B680022DA70C046BD4602B080BD03
:100CA00080B584B000AF02003960FB1D1A700C23C0
:100CB000FB181800104B98470C23FB1880221A7061
:100CC0003B681A780C23FB185A703B685A780C233F
:100CD000FB189A703B689A780C23FB18DA700C2387
:100CE000FA18FB1D1B7811001800044B9847C046EA
:100CF000BD4604B080BDC046790C000089300000BC
:100D000080B582B000AF78607B6800221A70C04660
:100D1000BD4602B080BDF0B58DB000AFB860F960DF
:100D20003A607B60002300243B627C620023002445
:100D3000BB61FC613F23FB6253E0FB6A203B002B5D
:100D400004DB01229A4013007B610BE0FB6A202246
:100D5000D31A0122DA4013000021FA6A91400A00F6
:100D600013437B610122FB6A9A4013003B61BB691C
:100D7000FC69DB186441BB61FC61BB683A691A40DD
:100D80001500FB687A691A4016002B00334307D020
:100D9000BB6901221343BB61FB6900221343FB6162
:100DA0007A68FB699A4219D87A68FB699A4203D13A
:100DB0003A68BB699A4211D8B969FA693B687C689C
:100DC000C91AA2410B001400BB61FC613A6A3B697D
:100DD00013433B627A6A7B6913437B62FB6A013B84
:100DE000FB62FB6A002BA8DA3B6A7C6A18002100D0
:100DF000BD460DB0F0BD80B586B000AFF860B960FB
:100E00007A601623FB1800221A80BB683B61BB681E
:100E10005A08FB689A4201D2402326E0BB685B086F
:100E20003B610AE03A69FB68D31A3B611623FB1861
:100E30001A881623FB1801321A803A69FB689A4215
:100E4000F0D21623FB181622BA181288013A1A801B
:100E50001623FB181B88FF2B01D9402305E07B6874
:100E60001622BA1812881A8000231800BD4606B050
:100E700080BD0000F0B5A1B000AFF864B9647A6439
:100E80004322BA181370002300243B677C670023B9
:100E90000024BB66FC6600230024BB67FC670023BC
:100EA0007B66582340229446BC4463441A78FB6C0A
:100EB0005A43BB6C9A4201D94023B3E04323FB1849
:100EC0001B78002B3DD1582340229446BC446344F8
:100ED0001B78DBB23B6100237B61FB6CBB600023B2
:100EE000FB60524CBA68FB6838697969A047030017
:100EF0000C001B00FB650023BB65BB6C3B60002343
:100F00007B60B86DF96D3A687B68494CA047030077
:100F10000C003B677C67002101223B6F7C6FC91A84
:100F2000A2410B001400BB66FC66BB6E1B0CFA6E84
:100F300016041E43BB6E1D043300BB670023FB6712
:100F40006AE04323FB181B78012B65D1FB6C3B63E4
:100F500000237B63582340229446BC4463441B789F
:100F6000DBB2BB620023FB62304CBA6AFB6A386BAF
:100F7000796BA04703000C00BB65FC65BB6C3B6252
:100F800000237B62BB6DFC6D1A002300386A796A0E
:100F9000274CA04703000C007B667A6E80239B01E0
:100FA0009A4201D940233DE0BB6CBB610023FB6149
:100FB000B969FA690B005B0F1000C000F863F86BA9
:100FC0001843F8630B00DB00BB63BB6DFC6D1A00BC
:100FD0002300B86BF96B164CA04703000C00BB65EF
:100FE000FC65BB6DFC6DD9B27B6EDBB2DB00DAB2A7
:100FF000172340208446BC4463448A1A1A7017237E
:1010000040229446BC4463441B785B031A007B6E09
:101010001343BB670023FB67BB6FFC6F9AB27B6C0B
:101020001A8000231800BD4621B0F0BD2136000013
:10103000170D000080B584B000AF0200FB1D1A70D0
:10104000BB1D0A1C1A701A4B1B7801225340DBB2DD
:10105000002B03D1BB1D1B78002B1BD00C23FB18CE
:101060001800144B98470C23FB18FA1D12781A70BD
:101070000C23FB18190013200F4B984713200F4B1C
:1010800098470B4BFA1D12785A70094B01221A70BF
:10109000002308E0064B5B78FA1D12789A4201D1D2
:1010A000002300E01D231800BD4604B080BDC046EB
:1010B000A0000020010D00009D2D0000E12D00008A
:1010C00080B582B000AF78600A00FB1C1A707B68A4
:1010D0004D4A93423FD04C4A934206D84B4A9342E2
:1010E0000FD04B4A934221D089E04A4A934200D123
:1010F0005BE0494A934200D16CE0484A93423FD0BA
:101100007DE0FB1C1B78012B0AD002DC002B05D0F4
:1011100075E0022B06D0032B06D070E0404B6FE049
:10112000404B6DE0404B6BE0404B69E0FB1C1B7893
:10113000012B0AD002DC002B05D060E0022B06D088
:10114000032B06D05BE003235AE0394B58E0394BC0
:1011500056E0394B54E0FB1C1B78012B0AD002DC13
:10116000002B05D04BE0022B06D0032B06D046E027
:10117000324B45E0324B43E0324B41E0324B3FE0F3
:10118000FB1C1B78012B0AD002DC002B05D036E0BB
:10119000022B06D0032B06D031E02C4B30E02C4B39
:1011A0002EE02C4B2CE02C4B2AE0FB1C1B78012B57
:1011B0000AD002DC002B05D021E0022B06D0032B45
:1011C00006D01CE0254B1BE0254B19E0254B17E012
:1011D000254B15E0FB1C1B78012B0AD002DC002BF1
:1011E00005D00CE0022B06D0032B06D007E01F4BE6
:1011F00006E01F4B04E01F4B02E01F4B00E0002302
:101200001800BD4602B080BD001000420008004238
:10121000000C004200180042001C00420014004272
:10122000030004000300050003000600030007009C
:101230000300010003001E0003001F00030008005C
:101240000300090003000A0003000B000300100064
:1012500003001100030012000300130003000C0040
:1012600003000D0003000E0003000F000300160032
:1012700003001700030018000300190090B58BB09D
:1012800000AF78600C23FB180F4A13CA13C313CAAC
:1012900013C300237B620EE00C23FB187A6A9200D2
:1012A000D3581A007B689A4202D17B6ADBB206E00F
:1012B0007B6A01337B627B6A052BEDD90023180022
:1012C000BD460BB090BDC046983E000080B582B0D0
:1012D00000AF0200FB1D1A70C046BD4602B080BDC3
:1012E00080B584B000AF02003960FB1D1A70134B4B
:1012F0001B7801225340DBB2002B15D00023FB608A
:101300000CE00F4BFA6892000E49D1500E4BFA6870
:1013100092000021D150FB680133FB60FB68052B74
:10132000EFD9064B01221A70FB1D1A78044B92006C
:101330003968D150C046BD4604B080BDA20000202F
:10134000A4000020CD1200002409002090B585B033
:1013500000AF78600823FB180B4A11681960928867
:101360009A800F23FC187B681800084B98470300ED
:1013700023700F23FB181B780822BA18D35C5BB2CA
:101380001800BD4605B090BDB03E00007D120000C3
:1013900080B500AF034B1B6800209847C046BD4690
:1013A00080BDC046A400002080B500AF034B5B6841
:1013B00001209847C046BD4680BDC046A40000201D
:1013C00080B500AF034B9B6802209847C046BD46DE
:1013D00080BDC046A400002080B500AF034BDB6891
:1013E00003209847C046BD4680BDC046A4000020EB
:1013F00080B500AF034B1B6904209847C046BD462B
:1014000080BDC046A400002080B500AF034B5B69DF
:1014100005209847C046BD4680BDC046A4000020B8
:1014200080B582B000AF78607B6800221A70C04639
:10143000BD4602B080BD000080B582B000AF0200A2
:101440003960FB1D1A70FB1D1B78012B0AD0022B83
:101450000FD0002B14D10E4B0D4A91693A680A4304
:101460009A610FE00A4B0A4AD1693A680A43DA6185
:1014700008E0074B064A116A3A680A431A6201E01B
:10148000172300E000231800BD4602B080BDC0460F
:101490000004004080B582B000AF78607B68802295
:1014A0001A707B6800225A707B6801229A707B68F0
:1014B0000022DA70C046BD4602B080BD80B500AFE4
:1014C000054B9B78DBB21A00022313405A1E93414E
:1014D000DBB21800BD4680BD0020004180B584B05D
:1014E00000AF78607B681B68FB60FB68DB695A1E95
:1014F0009341DBB21800BD4604B080BD80B582B018
:1015000000AF7860C0467B681800044B9847031E04
:10151000F9D1C046BD4602B080BDC046DD14000012
:10152000B0B58CB002AF786039607B681B68BB6176
:101530007B681B681800AB4B984703007B617B6995
:1015400014333B6100237B6200233B620A23FB18B8
:1015500000221A801F23FB1800221A701E23FB187A
:1015600010221A703B681B8A8022D20193421CD041
:101570008022D201934206DC002B0DD08022920102
:10158000934224D035E0C022D201934228D0802259
:101590001202934212D02CE01F23FB1800221A7073
:1015A0001E23FB1810221A7023E01F23FB180022B1
:1015B0001A701E23FB1808221A701AE01F23FB184A
:1015C00000221A701E23FB1803221A7011E01F2339
:1015D000FB1801221A701E23FB1810221A7008E053
:1015E0001F23FB1801221A701E23FB1808221A70F1
:1015F000C0463B681A683B68DB681A433B685B6916
:1016000013433A68128A13433A68127E1202134354
:101610003A682621525C520713437B621D23FB1854
:1016200000221A703B685B68FB60FB68002B1ED0D1
:101630008022520593424FD13B6827229B5C0122B6
:101640005340DBB2002B46D03B681D6A3B69DBB2DE
:101650001800654B984701001D23FC180A23FB184E
:101660001A002800614B98470300237033E03B6861
:1016700027229B5C002B14D03B68186A3B68996A50
:101680001D23FC181F23FB181D780A23FA181E239C
:10169000FB181B7800932B00554DA84703002370BF
:1016A0001AE03B681D6A3B69DBB218004E4B984755
:1016B0001D23FC181F23FB1819780A23FA181E2370
:1016C000FB181B7800930B0001002800484DA84729
:1016D0000300237000E0C0461D23FB181B78002B7D
:1016E00003D01D23FB181B7877E03B685B7E002B43
:1016F00003D03B689A7EBB699A737B6818003D4BA8
:1017000098470A23FB181A88BB699A817A6AFB6892
:1017100013437B623B6827229B5C01225340DBB270
:10172000002B03D07B6A042213437B623B685B7E01
:101730009A023B681B7F5B021A433B685B7F1B027C
:101740001A433B6824215B5C5B041A433B682521F8
:101750005B5C1B0413433B623B689B7A1A003B6A49
:1017600013433B623B68DB7A1A003B6A13433B62DC
:101770003B681B89FF2B0BD07B6A802252041343EA
:101780007B623B681B891A003B6A13433B6208E09B
:101790003B68DB7E002B04D07B6A8022D20413439B
:1017A0007B623B682C229B5C002B03D1124B984739
:1017B000031E03D07B6A802213437B627B68180080
:1017C0000C4B9847BB693A6A5A607B681800094B12
:1017D0009847BB697A6A1A6000231800BD460AB0B0
:1017E000B0BDC0467D120000C12E0000F70D000004
:1017F000750E0000FD140000BD14000090B593B0FC
:1018000000AFF860B9607A603B23FB1800221A70C1
:10181000FB68BA681A60FB681B687B63FB681B681F
:101820001800864B984703003B633B6B0233FB6217
:101830003B6B1433BB627B6B1B680122134001D0EE
:101840000523F6E07B6B1B680222134001D01C23AA
:10185000EFE00122FB6A9A40130019000220784B46
:1018600098472423FB181800764B98477B682D2255
:101870009A5C2423FB181A70BB6ADBB22422BA18C4
:1018800011001800704B9847BB6ADBB218006F4B11
:1018900098477B682D229B5C002118006C4B984771
:1018A0007B68DA7AFB685A717B6824229A5CFB6851
:1018B0009A717B6825229A5CFB68DA717B68DA7E14
:1018C000FB681A727B681A7FFB685A723B23FC180C
:1018D0007A68FB68110018005E4B9847030023707C
:1018E0003B23FB181B78002B03D03B23FB181B78F2
:1018F0009FE02023FB181800574B98472023FB1824
:1019000000225A702023FB1800229A707B681A6B01
:101910001023FB181A607B685A6B1023FB185A605F
:101920007B689A6B1023FB189A607B68DA6B102334
:10193000FB18DA604723FB1800221A702CE04723BB
:10194000FB181A781023FB189200D3583B643B6CA9
:10195000002B09D14723FB181A78BB681100180027
:101960003E4B984703003B643B6C01330DD03B6C0E
:10197000DAB22023FB181A703B6C1B0CDBB220225E
:10198000BA1811001800364B98474723FB181A78ED
:101990004723FB1801321A704723FB181B78032BCF
:1019A000CDD90023FB630AE0FA68FB6B02339B008E
:1019B000D318043300221A60FB6B0133FB63FB6B0B
:1019C000052BF1D9FB6800229A62FB6800225A625B
:1019D000FB680022DA85FB6800229A85FB683022CA
:1019E00000219954FB68312200219954FB6832226E
:1019F00000219954FB68332200219954FB681B682D
:101A00002722BC1818000D4B984703002370154A75
:101A10002723FB181B7811001800134B9847272326
:101A2000FB181A78114B9200F968D1503B23FB1830
:101A30001B781800BD4613B090BDC0467D12000053
:101A400039140000211400009D2D0000E12D00003C
:101A5000351000002115000095140000C110000091
:101A600089300000291E0000E11200002409002036
:101A700080B584B000AF78600A00BB1C1A807B6818
:101A80001B68FB607B68DB7901225340DBB2002BD3
:101A900001D01C2317E07B68DB8D9BB2002B01D0AB
:101AA000052310E07B681800094B9847FB68BA1CB7
:101AB00012881A85C046FB681B7EDBB21A0002231F
:101AC0001340F8D000231800BD4604B080BDC046C6
:101AD000FD14000080B584B000AF786039607B6889
:101AE0001B68FB607B689B7901225340DBB2002BB3
:101AF00001D01C235EE07B689B8D9BB2002B01D044
:101B0000052357E0FB681B7EDBB21A000423134059
:101B100001D105234EE07B681800284B9847FB68ED
:101B20005B8B9BB2DAB20B23FB183F210A401A7081
:101B30000B23FB181B78002B36D00B23FB181B78CC
:101B40000222134004D0FB6802225A831A2331E098
:101B50000B23FB181B780422134004D0FB680422DB
:101B60005A831E2326E00B23FB181B780122134007
:101B700004D0FB6801225A8313231BE00B23FB18BC
:101B80001B781022134004D0FB6810225A83422392
:101B900010E00B23FB181B782022134004D0FB68B5
:101BA00020225A83412305E0FB681B8D9AB23B68D3
:101BB0001A8000231800BD4604B080BDFD1400004B
:101BC00080B500AF024B9847C046BD4680BDC046B9
:101BD000E50B000080B500AF024B9847C046BD46FC
:101BE00080BDC046390C000080B584B000AF78607D
:101BF0007B681B68FB60FB68DB695A1E9341DBB2A4
:101C00001800BD4604B080BD80B582B000AF7860DA
:101C1000C0467B681800044B9847031EF9D1C046A4
:101C2000BD4602B080BDC046E91B000080B586B04D
:101C300000AFF860B960BB1D1A80FB681B687B6150
:101C40000F4B9847FB68DB8D9BB2002B03D00D4BED
:101C50009847052310E0FB68BA1D1288DA85094B06
:101C60009847FB68BA689A62FB6833220521995449
:101C70007B6901229A7500231800BD4606B080BD1D
:101C8000C11B0000D51B000080B586B000AFF86016
:101C9000B960BB1D1A80FB681B687B61164B9847B7
:101CA000FB689B8D9BB2002B03D0144B98470523F8
:101CB0001EE0FB68BA1D12889A85104B9847FB6896
:101CC000BA685A62FB683222052199547B69042262
:101CD0009A75FB681B7A002B02D07B6920229A75CB
:101CE000FB685B7A002B02D07B6908229A7500237F
:101CF0001800BD4606B080BDC11B0000D51B00000A
:101D000080B584B000AFF860B960FB1D1A70FB1D90
:101D10001B78FA6802339B00D3180433BA681A6040
:101D2000FB6830229B5C5AB2FB1D1B780121994055
:101D30000B005BB213435BB2D9B2FB6830229954FB
:101D4000C046BD4604B080BD80B584B000AFF86029
:101D5000B960BB1D1A80BB1D1B88002B01D1172346
:101D600010E0FB68DB7901225340DBB2002B01D08D
:101D70001C2307E0BB1D1A88B968FB681800034BD9
:101D8000984703001800BD4604B080BD2D1C00001C
:101D900080B584B000AFF860B960BB1D1A80BB1D70
:101DA0001B88002B01D1172310E0FB689B790122CF
:101DB0005340DBB2002B01D01C2307E0BB1D1A8867
:101DC000B968FB681800034B984703001800BD462C
:101DD00004B080BD891C000080B584B000AF78607D
:101DE0000A00FB1C1A70FB1C1B78002B02D0012B75
:101DF00007D00DE00F23FB187A683221525C1A706D
:101E00000BE00F23FB187A683321525C1A7004E050
:101E10000F23FB1817221A70C0460F23FB181B78DC
:101E20001800BD4604B080BD80B588B000AF020088
:101E3000FB1D1A70FB1D1A78A34B9200D358BB618F
:101E4000BB691B687B61BB691800A04B98477B6925
:101E50001B7EDAB21223FB181A807B699B7DDBB2F2
:101E60009AB21223FB181221791809880A401A80A5
:101E7000BB6930229B5CBA693121525C1340DAB2F3
:101E80001023FB181A801223FB181B880122134011
:101E900044D0BB69DB8D9BB2002B3CD0BB699B6AF5
:101EA0001B78DAB21C23FB181A80BB699B6A5A1C88
:101EB000BB699A62BB695B79012B13D1BB699B6AD1
:101EC0001B78DBB21B021AB21C23FB1800215B5EDD
:101ED00013431AB21C23FB181A80BB699B6A5A1C55
:101EE000BB699A621C23FB181B88DB05DB0D9AB2C9
:101EF0007B691A85BB69DB8D9BB2013B9BB2BA69DA
:101F0000191CD185002B09D17B6901221A757B69C7
:101F100002229A7502E07B6901221A751223FB18CE
:101F20001B880222134011D07B6902221A75BB69FB
:101F30003322002199541023FB181B8801221340DF
:101F400004D0BB69DB68BA69100098471223FB18FC
:101F50001B880422134000D1BDE0BB699B8D9BB25E
:101F6000002B00D1B4E07B695B8B9BB2DAB21F23FC
:101F7000FB183F210A401A701F23FB181B78082208
:101F8000134007D01F23FB181F22BA18127808210C
:101F90008A431A701F23FB181B78002B50D01F2375
:101FA000FB181B780222134007D0BB6932221A218A
:101FB00099547B6902225A8336E01F23FB181B7851
:101FC0000422134007D0BB6932221E2199547B6939
:101FD00004225A8328E01F23FB181B780122134098
:101FE00007D0BB693222132199547B6901225A839D
:101FF0001AE01F23FB181B781022134007D0BB697F
:102000003222422199547B6910225A830CE01F230B
:10201000FB181B782022134006D0BB6932224121D5
:1020200099547B6920225A831023FB181B880422B1
:10203000134050D0BB695B69BA69100098474AE009
:102040007B691B8D9AB20E23FB18D205D20D1A8024
:10205000BB695B6A0E22BA181288D2B21A70BB69C9
:102060005B6A5A1CBB695A62BB695B79012B0DD153
:10207000BB695B6A0E22BA181288120A92B2D2B2F7
:102080001A70BB695B6A5A1CBB695A62BB699B8D3B
:102090009BB2013B9BB2BA69191C9185002B1AD1E6
:1020A0007B6904221A75BB693222002199541023DE
:1020B000FB181B88022213400DD0BB691B69BA694B
:1020C0001000984707E0C04624090020091C0000C2
:1020D0007B6904221A751223FB181B8810221340F7
:1020E00010D07B6910221A757B6910221A76102392
:1020F000FB181B881022134004D0BB69DB69BA6946
:10210000100098471223FB181B882022134010D080
:102110007B6920221A757B6920221A761023FB180E
:102120001B880822134004D0BB699B69BA69100060
:1021300098471223FB181B880822134010D07B6994
:1021400008221A757B6908221A761023FB181B884F
:102150002022134004D0BB691B6ABA69100098475B
:10216000C046BD4608B080BD80B582B000AF786083
:102170007B6801225A607B6800225A707B680622C5
:102180001A707B6800221A727B6800225A72C0465D
:10219000BD4602B080BD80B582B000AF78607B687C
:1021A00000221A70C046BD4602B080BD80B582B024
:1021B00000AF78607B6800221A707B6804225A7036
:1021C0007B6800229A707B68802212029A607B688A
:1021D0000022DA707B6801221A717B6800221A7370
:1021E0007B6801225A737B6800229A73C046BD4601
:1021F00002B080BD80B582B000AF78607B680322FA
:102200001A707B6800225A707B6801229A70C0465F
:10221000BD4602B080BD80B582B000AF78607B68FB
:1022200000221A707B6800225A807B6800229A8004
:102230007B6800229A717B680022DA717B68012238
:102240005A707B6807221A727B683F225A817B682A
:1022500001221A737B680122DA817B6806221A82C6
:10226000C046BD4602B080BD80B582B000AF02005E
:10227000FB1D1A70034AFB1D1B781372C046BD4636
:1022800002B080BD0004004080B582B000AF020003
:10229000FB1D1A70BB1D0A1C1A70FB1D1B78012B3D
:1022A00008D0022B0BD0002B0ED10B4ABB1D1B7884
:1022B00053720BE0084ABB1D1B78937206E0064A76
:1022C000BB1D1B78D37201E0172300E00023180028
:1022D000BD4602B080BDC0460004004080B582B05B
:1022E00000AF0200FB1D1A70084AFB1D1B780F216E
:1022F0000B40D9B253680F20014049001E20834390
:102300000B435360C046BD4602B080BD0040004153
:1023100080B500AFC046044BDB6810221340FAD0F2
:10232000C046BD4680BDC0460008004080B500AF35
:102330000C4B02229A840C4B98470A4A0B4B9B6821
:10234000D362084A094B5B689362064B00229A8469
:10235000054B9847034A054B1B689BB29384C046C4
:10236000BD4680BD0008004011230000BC000020D5
:1023700080B582B000AF0200FB1D1A70FB1D1B78F8
:10238000082B41D89A00234BD3181B689F46224B39
:102390001B693AE0214B1B6A9B059B0FDBB21A00BD
:1023A0001F4BD34031E080231B022EE080231B0211
:1023B0002BE0194B5B6928E0174B1B680222134086
:1023C00001D1002321E0174B9847134B1B682422AF
:1023D0001340042B09D10020134B984702000E4BE9
:1023E0009B681B041B0C53430FE0104B0DE00B4A82
:1023F0005023D35CDBB21A000423134001D1002325
:1024000003E0054BDB6800E000231800BD4602B086
:1024100080BDC046B83E0000BC000020000800405F
:1024200000127A0011230000C12E0000006CDC02B3
:1024300080B584B000AF78601A4B1B6AFB607B6884
:102440001B781A1C03231340DAB20D23FB18032157
:102450000A4010001A7803218A43111C021C0A4307
:102460001A707B689A780C23FB18D0011A787F21A8
:102470000A40111C021C0A431A707B685A780C230C
:10248000FB1801210A4090011A7840218A43111C4F
:10249000021C0A431A70034BFA681A62C046BD4612
:1024A00004B080BD0008004080B584B000AF786003
:1024B000434A0C23FB18928A1A807B685B781A1CAB
:1024C00007231340DAB20C23FB1807210A4010003F
:1024D0005A7807218A43111C021C0A435A707B68F0
:1024E0001B78002B06D10C23FB181A7804210A4311
:1024F0001A7005E00C23FB181A7804218A431A701D
:102500007B689A780C23FB1801210A4050011A7845
:1025100020218A43111C021C0A431A707B68DA7856
:102520000C23FB1801210A4010011A7810218A435C
:10253000111C021C0A431A707B681A790C23FB18C1
:1025400001210A40D0001A7808218A43111C021C7C
:102550000A431A707B685A7B0C23FB18D0011A7847
:102560007F210A40111C021C0A431A707B681A7BE7
:102570000C23FB1801210A4090011A7840218A435C
:10258000111C021C0A431A707B689A7B0C23FB18EF
:1025900001210A4010015A7810218A43111C021CA3
:1025A0000A435A707B689A68064B5A61044A0C23A6
:1025B000FB181B889382C046BD4604B080BDC04650
:1025C00000080040BC00002080B582B000AF7860F9
:1025D0007B681B7A9B021B041A0C7B685B899B053A
:1025E0009B0D1A432A4B5A607B689A797B68DB798A
:1025F0001343DBB21A007B685B8813437A689288C6
:102600001A437B685B78DB011A43214B1A607B68B5
:102610001B78042B16D17B681B7B9B061A007B68FA
:10262000DB891B0419001B4B0B4013437A68128A89
:102630001A43174B9A60164B1B687A6812781A4334
:10264000134B1A607B681B78202B1CD17B681B7B8B
:102650009B061A007B68DB891B0419000D4B0B409D
:1026600013437A68128A1A43094B9A60084B1B6815
:102670007A68127804210A43D2B213438022D2002E
:102680001A43034B1A60C046BD4602B080BDC04627
:10269000BC0000200000FF0380B582B000AF020044
:1026A000FB1D1A70FB1D1B78082B3BD89A00214B91
:1026B000D3181B689F46204B1F4A126A02210A4307
:1026C0001A62002331E01C4B1B4A926902210A4323
:1026D0009A6129E0184A184B1B8A9BB202210B43CE
:1026E0009BB2138220E0144A134B9B8A9BB20221B7
:1026F0000B439BB2938217E0104B1B6802221A43D4
:102700000E4B1A600E4B98470EE00B4A0A494423C1
:10271000CB5CDBB202210B43D9B24423D15403E09A
:10272000002302E0172300E000231800BD4602B09A
:1027300080BDC046DC3E000000080040BC00002018
:102740002D23000080B584B000AF0200FB1D1A707D
:102750000023FB60FB1D1B78082B21D89A00184B27
:10276000D3181B689F460823FB601BE00423FB6013
:1027700018E00123FB6015E00223FB6012E0D02388
:10278000FB600FE00F4A5023D35CDBB21A00032337
:102790001340033B5A425341DBB20CE001230AE0F1
:1027A000002308E0074BDB68FA681A40FB68D31A7D
:1027B0005A425341DBB21800BD4604B080BDC0464A
:1027C000003F00000008004080B582B000AF3B0031
:1027D00002221A7000237B6009E07B68DBB23A00BA
:1027E00011001800054B98477B6801337B607B68BC
:1027F000242BF2D9C046BD4602B080BD9D2D0000FD
:1028000080B5AAB000AF854BC222D2009A600220E8
:10281000834B9847834B98479423FB181800824BAF
:1028200098479423FB18802212029A609423FB1885
:1028300000221A709423FB1806225A709423FB1866
:1028400000229A709423FB180022DA709423FB185C
:1028500001221A719423FB1800225A739423FB1847
:1028600001221A739423FB181800704B9847052017
:102870006F4B9847C04605206E4B984703001A00DF
:1028800001235340DBB2002BF5D18023FB18180045
:10289000694B98478023FB1804221A708023FB1889
:1028A00000225A70654B1B689B0EA422BA18136055
:1028B000A423FB181B683F2B03D11F23A422BA18A3
:1028C0001360A423FB181B68DAB28023FB181A726A
:1028D0008023FB1800225A808023FB180022DA7123
:1028E0008023FB1800229A718023FB1800229A8013
:1028F0008023FB18B722D2001A828023FB18032200
:102900001A738023FB181F22DA818023FB1818001A
:102910004B4B98477C23FB1818004A4B98477C2365
:10292000FB1800221A707C23FB1801229A707C236A
:10293000FB1801225A707C23FB181800424B984761
:1029400006203B4B9847414B98476423FB181800DF
:102950003F4B98476423FB1805221A706423FB1829
:1029600001225A606423FB1800221A726423FB18A8
:1029700000225A726423FB1819000120354B984736
:102980000120354B98470C23FB181800334B984710
:102990000C23FB1801221A700C23FB1819000020CD
:1029A0002F4B984700202F4B98470720204B9847E4
:1029B000C04607201F4B984703001A0001235340CD
:1029C000DBB2002BF5D10020274B984700210020D7
:1029D000264B984700210120244B984700210220D4
:1029E000224B98473B001800194B98473B000722A1
:1029F0001A703B0001225A603B0001221A723B0010
:102A000000225A723B0019000020124B9847002008
:102A1000114B9847C046BD462AB080BD0008004013
:102A2000DD220000C9270000AD210000A92400001C
:102A3000992600004527000017220000246080002E
:102A4000C9250000F521000031240000152B0000ED
:102A500069210000452B0000692C0000972100002F
:102A60009D2D0000E12D0000692200008922000058
:102A700080B582B000AF02003960FB1D1A70FB1DEB
:102A80001B78012B0AD0022B0FD0002B14D10E4B38
:102A90000D4A91693A680A439A610FE00A4B0A4A63
:102AA000D1693A680A43DA6108E0074B064A116ABD
:102AB0003A680A431A6201E0172300E00023180075
:102AC000BD4602B080BDC0460004004080B500AFE6
:102AD000024B9847C046BD4680BDC046E50B00008E
:102AE00080B500AF024B9847C046BD4680BDC0468A
:102AF000390C000080B500AF054B5B78DBB25BB2F0
:102B0000002B01DA012300E000231800BD4680BD40
:102B1000000C004080B500AF08210020074B98470B
:102B2000074B01221A70C046054B1B78DBB21A0016
:102B300001231340F8D1C046BD4680BD712A000074
:102B4000000C004080B586B000AF02003960FB1D6C
:102B50001A70FB1D1B787B61FB1D1B783B613B687A
:102B60001B781B021A007B6913437B613B685B780F
:102B7000002B04D07B698022D20213437B613B6827
:102B80005B7A002B04D07B698022120313437B61A4
:102B90003B685B68012B2CD93B685A683B685B68D3
:102BA000013B13401AD10023FB600223BB6005E008
:102BB000FB680133FB60BB685B00BB603B685A6825
:102BC000BB689A42F4D8FB681B023A6913433B6125
:102BD0007B698022520313437B610AE03B685B6898
:102BE0001B023A6913433B617B69802292021343C3
:102BF0007B613B681B7A002B04D07B6980229203A7
:102C000013437B61C046134B9847031EFBD1124B05
:102C10009847124AFB1D1B781370C0460D4B98470E
:102C2000031EFBD10E4B3A699A60C046094B984788
:102C3000031EFBD10A4B0A4A5168802252021140FE
:102C40007A690A435A60074B9847C046BD4606B0AA
:102C500080BDC046F52A0000CD2A0000080C0040C7
:102C6000000C0040E12A000080B582B000AF0200F5
:102C7000FB1D1A70C0460E4B9847031EFBD10D4B2F
:102C800098470D4AFB1D1B781370C046084B9847A8
:102C9000031EFBD1094B094A5268802149020A43AD
:102CA0005A60074B9847C046BD4602B080BDC0463B
:102CB000F52A0000CD2A0000040C0040000C004062
:102CC000E12A000080B586B000AF0200FB1D1A703B
:102CD000C0462A4B9847031EFBD1294B9847294AE7
:102CE000FB1D1B781370C046244B9847031EFBD175
:102CF000254B5B68DB04DB0EDBB21800234B9847E7
:102D000003007B611F4AFB1D1B7813701E4B5B6821
:102D1000DB02DB0FDAB21323FB181A701C4AFB1D0F
:102D20001B781370C046154B9847031EFBD1164BFA
:102D30009B681B021B0C9BB2FB60164B984713232E
:102D4000FB181B78002B09D1FB68012B06D9124B0D
:102D5000F9687869984703007B610AE01323FB1840
:102D60001B78002B05D0FB6801337A69DA40130029
:102D70007B617B691800BD4606B080BDF52A000066
:102D8000CD2A0000040C0040000C0040712300001C
:102D9000080C0040E12A00000935000080B584B02D
:102DA00000AF02003960FB1D1A70FB1D1B78FB6031
:102DB0003B681B781B021A00FB681343FB60FB1D7A
:102DC0001B781800044B9847044BFA6892B25A805B
:102DD000C046BD4604B080BD292E0000000C004056
:102DE00080B582B000AF0200FB1D1A700A4B9847F5
:102DF0000A4AFB1D1B7813700949094B5B889BB27B
:102E00008022D20113439BB24B80064B9847C046A9
:102E1000BD4602B080BDC046CD2A0000020C004075
:102E2000000C0040E12A000080B584B000AF020031
:102E3000FB1D1A701C4B98471C4AFB1D1B78137016
:102E40001B4B5B881B051B0FDBB2FB60184A5388CA
:102E500018490B405380164A154B5B889BB21649A4
:102E60000B409BB25380C046114B5B889BB21A004B
:102E70008023DB011340F7D10D4AFB68DBB2191C3C
:102E80000F230B40D9B25388081C0F2101400802C0
:102E900008490B40191C031C0B435380074B9847F0
:102EA000C046BD4604B080BDCD2A0000020C0040E3
:102EB000000C0040FFF0FFFFFFBFFFFFE12A000012
:102EC00080B584B000AF0200FB1D1A700D4B98470F
:102ED0000D4AFB1D1B7813700C4B5B881B051B0FE9
:102EE000DAB20F23FB181A70094B98470F23FB180F
:102EF0001B781800074B984703001800BD4604B024
:102F000080BDC046CD2A0000020C0040000C0040ED
:102F1000E12A0000C52C000080B584B000AF02009B
:102F2000FB1D1A700F23FB18FA1D1278D2091A70B4
:102F30000E23FB18FA1D127852091A700D4BBB6054
:102F40000F23FB181B78002B0FD10F23FB181B78C6
:102F50009B0010229446BC446344083B1A680E232D
:102F6000FB181B78DB01D31800E000231800BD46D6
:102F700004B080BD0044004180B588B000AFF86067
:102F8000B9607A600023FB617B68DB7801225340E3
:102F9000DBB2002B35D07B681B78802B0BD0FB6914
:102FA000802252021343FB617B681B781B061A00C8
:102FB000FB691343FB617B685B78002B03D07B6864
:102FC0005B78022B10D1FB69802292021343FB61D4
:102FD0007B689B78002B04D0FB698022D2021343CC
:102FE000FB61FB68BA685A607B685B78012B03D091
:102FF0007B685B78022B07D1FB69224A1340FB6197
:1030000002E0FB68BA685A60BB681B041B0CBB611A
:10301000BB681B0C7B61BA69FB691343A022D20514
:103020001A43FB689A627A69FB691343D02212063D
:103030001A43FB689A627B68DB7801225340DBB25B
:10304000002B1AD0FA698023DB0213400AD07B6878
:103050009B78012B03D1FB68BA689A6102E0FB6898
:10306000BA685A617B685B78012B03D07B685B7818
:10307000022B02D1FB68BA689A60C046BD4608B010
:1030800080BDC046FFFFFBFF80B584B000AF0200EB
:103090003960FB1D1A70FB1D1B7818000A4B9847FE
:1030A0000300FB60FB1D1B781F22134001229A4086
:1030B0001300BB603A68B968FB681800034B984777
:1030C000C046BD4604B080BD192F0000792F000016
:1030D00080B500AFC046BD4680BD000080B500AFE2
:1030E000064B9847064B9847064B9847064B984720
:1030F000064B9847C046BD4680BDC046012800002B
:10310000E5020000D1300000D1300000D1300000D5
:1031100080B582B000AF2F4B7B602F4B3B607A684D
:103120003B689A420CD007E03B681A1D3A607A6807
:10313000111D796012681A603A68284B9A42F3D3DD
:10314000274B3B6004E03B681A1D3A6000221A607E
:103150003A68244B9A42F6D3234B7B60234B7A6820
:10316000FF218A439A60224A90235B000221D150BA
:10317000204AD37803218B43191C02230B43D370BD
:103180001C4AD3780C218B43191C08230B43D370A2
:10319000194A937B30218B43191C20230B439373D3
:1031A000154A937B0C218B43191C08230B43937303
:1031B000114A937B03218B43191C02230B43937306
:1031C0000E4A536880210B4353600D4B98470D4BBB
:1031D0009847FEE73041000000000020700000200A
:1031E000700000204C0900200000000000ED00E00D
:1031F0000070004100500041004800410040004183
:10320000753600002134000080B500AFFEE70000F5
:1032100080B586B000AFF860B9607A6000237B614A
:10322000FB68002B12D001235B4213E00B4B1A68A2
:103230000B4B1B68B96818009047BB680133BB6033
:103240007B6901337B617B68013B7B607B68002B82
:10325000ECDC7B691800BD4606B080BD3C0900204F
:103260004409002080B586B000AFF860B9607A608C
:1032700000237B61FB68012B1DD0FB68022B1AD059
:10328000FB68032B17D001235B4218E00E4B1A6832
:103290000E4B1868BB68591CB9601B781900904721
:1032A000031E02DA01235B4209E07B6901337B6183
:1032B0007B68013B7B607B68002BE7D17B69180052
:1032C000BD4606B080BDC04640090020440900202C
:1032D00080B584B000AF78600A4B1B68002B02D128
:1032E000084B094A1A60074B1B68FB60054B1A68BC
:1032F0007B68D218034B1A60FB681800BD4604B007
:1033000080BDC046D40000205029002080B582B086
:1033100000AF786001235B421800BD4602B080BD5B
:1033200080B582B000AF786039603B68802292013E
:103330005A6000231800BD4602B080BD80B584B03D
:1033400000AFF860B9607A6000231800BD4604B091
:1033500080BD000080B582B000AF02003960FB1D67
:103360001A70FB1D1B78012B0AD0022B0FD0002BEB
:1033700014D10E4B0D4A91693A680A439A610FE0E5
:103380000A4B0A4AD1693A680A43DA6108E0074BF6
:10339000064A116A3A680A431A6201E0172300E0FC
:1033A00000231800BD4602B080BDC04600040040A6
:1033B00080B582B000AF78607B6800221A707B68AD
:1033C00001225A70084B5B68DB061B0FDBB21A0048
:1033D0007B689A707B680022DA707B6800221A7121
:1033E000C046BD4602B080BD0040004180B500AF80
:1033F000044B01221A70BFF35F8F62B6C046BD4610
:1034000080BDC0460800002080B500AF0221012029
:10341000024B9847C046BD4680BDC04655330000AC
:1034200080B500AF124B9847124B9847124B984704
:10343000124B9847124B9847124B01221A70BFF358
:103440005F8F62B6104B9847104B1800104B98478F
:10345000104B18000E4B984764200F4B98470F4BAA
:1034600098470F4B984700231800BD4680BDC046C3
:10347000DD3000004901000045090000ED33000087
:10348000DD3400000800002009340000243F000063
:10349000D1090000403F0000A1010000B509000073
:1034A000A534000080B582B000AF90235B021B689A
:1034B0003B603B6883F30888064B902252029A6077
:1034C000054B1B687B607B689847C046BD4602B0D1
:1034D00080BDC04600ED00E00420010080B582B050
:1034E00000AF3B001800064B98473B0000225A7083
:1034F0003B001800034B9847C046BD4602B080BD54
:10350000B1330000B9030000002243088B4274D39A
:1035100003098B425FD3030A8B4244D3030B8B42D4
:1035200028D3030C8B420DD3FF22090212BA030CDD
:103530008B4202D31212090265D0030B8B4219D3BE
:1035400000E0090AC30B8B4201D3CB03C01A5241DE
:10355000830B8B4201D38B03C01A5241430B8B4226
:1035600001D34B03C01A5241030B8B4201D30B030F
:10357000C01A5241C30A8B4201D3CB02C01A524136
:10358000830A8B4201D38B02C01A5241430A8B42F9
:1035900001D34B02C01A5241030A8B4201D30B02E2
:1035A000C01A5241CDD2C3098B4201D3CB01C01AFC
:1035B000524183098B4201D38B01C01A5241430906
:1035C0008B4201D34B01C01A524103098B4201D3F4
:1035D0000B01C01A5241C3088B4201D3CB00C01A61
:1035E000524183088B4201D38B00C01A52414308D9
:1035F0008B4201D34B00C01A5241411A00D20146FE
:10360000524110467047FFE701B5002000F006F870
:1036100002BDC0460029F7D076E770477047C04624
:10362000F0B5CE46474615042D0C2E0080B5070494
:10363000140C3F0C9946030C7E435D436743634380
:103640007F19340CE4199C46A54203D980235B0200
:103650009846C4444B46514343433604360C250C2C
:1036600024046544A4195918491920000CBC90463B
:103670009946F0BD70B500260C4D0D4C641BA4108E
:10368000A64209D1002600F043FD0A4D0A4C641BF6
:10369000A410A64205D170BDB300EB58984701367F
:1036A000EEE7B300EB5898470136F2E71C41000003
:1036B0001C4100001C4100002041000010B5034BDC
:1036C0000100186800F056F810BDC0460C0000203C
:1036D00003008218934200D1704719700133F9E753
:1036E00070B50500002910D00C1F2368002B00DAEC
:1036F000E418280000F022FB1D4A1368002B05D1B6
:1037000063601460280000F01AFB70BDA34209D961
:10371000216860188342F3D118685B684118216002
:10372000EEE713005A68002A01D0A242F9D91968BD
:103730005818A0420BD12068091858181960824205
:10374000E0D110685268411819605A60DAE7A04267
:1037500002D90C232B60D5E721686018824203D17F
:10376000106852684118216062605C60CAE7C04618
:10377000D8000020032370B5CD1C9D4308350600FA
:103780000C2D1ED20C25A9421DD8300000F0D6FA0F
:10379000254A14682100002919D1244C2368002BE4
:1037A00003D1300000F044F820602900300000F020
:1037B0003FF8431C2CD10C233000336000F0BFFADB
:1037C00003E0002DDFDA0C233360002070BD0B68AE
:1037D0005B1B1AD40B2B03D90B60CC18256003E0BC
:1037E0008C420ED163681360300000F0A8FA20000C
:1037F00007220B30231D9043C31AE7D05A42E250F0
:10380000E4E74B6863600C00EEE70C004968C2E730
:103810000323C41C9C43A042E0D0211A300000F0D6
:1038200007F8431CDAD1C6E7D8000020DC000020EE
:10383000002370B5064C050008002360FFF748FD23
:10384000431C03D12368002B00D02B6070BDC04601
:10385000480900204A424A41802310B55200DB004B
:1038600000F002F810BD0000F0B51D004F4B85B010
:103870001E6804000F000092002E05D0B369002BD3
:1038800002D1300000F09CF9494B9C4250D1746841
:10389000009B022B05D0012B00D984E0002D00DA1B
:1038A00081E02100300000F01DF9616B002908D093
:1038B00023004433994202D03000FFF711FF002368
:1038C00063630023A3616360A3891B0603D5216999
:1038D0003000FFF705FFA389364A1340A381009B00
:1038E000022B5AD003AB02AA2100300000F0FEF9EF
:1038F000A3891843A081002D24D1029D2800FFF741
:10390000DDFE0195071E42D1029B0193AB4239D1E6
:10391000012040420223A2891343A3810023A36014
:1039200023004733236023610123636105B0F0BDA9
:10393000214B9C4201D1B468AAE7204B9C42A7D1FD
:10394000F468A5E7002FD9D0B369002B02D130006D
:1039500000F036F9009B012B03D1A389009A1A438A
:10396000A2810820A389276027616561184018D0CB
:10397000012018400023984211D06D42A360A56138
:103980001800D3E70198FFF799FE071EC0D08023E7
:10399000A289019D1343A381D6E70020BAE7A56061
:1039A000C4E7A060C2E701204042BFE70C0000204E
:1039B000D04000005CF3FFFFF0400000B04000008A
:1039C0000023C25C0133002AFBD1581E704700005F
:1039D000F7B58A8905000C00130760D44B68002BEB
:1039E00004DC0B6C002B01DC0020FEBDE76A002F1D
:1039F000FAD000232E682B6080235B011A4034D05C
:103A0000606DA3895B0706D56368C01A636B002BE2
:103A100001D0236CC01A0200216A00232800E76A43
:103A2000B847A189431C06D12B681D2B31D82C4ADD
:103A3000DA40D3072DD50023636023692360CB04CC
:103A400005D5431C02D12B68002B00D16065616B4A
:103A50002E600029C8D023004433994202D02800A8
:103A6000FFF73EFE00206063BFE70123216A2800C4
:103A7000B847431CC5D12B68002BC2D01D2B01D0E9
:103A8000162B01D12E60AFE74023A2891343A381F7
:103A9000ABE740230B430120A3814042A5E70F6918
:103AA000002FA1D00B680F60DB1B0193002392074E
:103AB00000D14B69A360019B002B00DC94E7019BC4
:103AC0003A00216A2800A66AB047002803DC402398
:103AD000A2891343DFE7019B3F181B1A0193EAE712
:103AE000010040200B6970B505000C00002B01D1CE
:103AF000002070BD002804D08369002B01D100F0A4
:103B00005FF80B4B9C4209D16C680C22A35E002B22
:103B1000EED021002800FFF75BFFEAE7054B9C424F
:103B200001D1AC68F1E7044B9C42EED1EC68ECE7C4
:103B3000D0400000F0400000B040000010B5024945
:103B400000F0B2F810BDC046E53A0000002310B501
:103B5000040003604360836081814366C281036126
:103B600043618361190008225C30FFF7B1FD054B0A
:103B700024626362044BA362044BE362044B23633D
:103B800010BDC046413D0000693D0000A13D000060
:103B9000CD3D000070B568254A1E55430E00290032
:103BA0007431FFF7E7FD041E08D000212A000160F0
:103BB00046600C30A0606832FFF78AFD200070BDBF
:103BC000836913B50400002B28D18364C3640365A3
:103BD000134B144A1B6882620193984201D101235E
:103BE0008361200000F020F86060200000F01CF8E5
:103BF000A060200000F018F80022E0600421606856
:103C0000FFF7A4FF01220921A068FFF79FFF02220E
:103C10001221E068FFF79AFF0123A36113BDC0469C
:103C2000AC4000003D3B0000F8B51E4B07001E688D
:103C3000B369002B02D13000FFF7C2FF4836B468E9
:103C40007368013B04D53368002B07D03668F6E76C
:103C50000C22A55E002D0DD06834F2E70421380057
:103C6000FFF798FF30600028F0D10C2304003B6080
:103C70002000F8BD012320005B42E3810233A381D1
:103C800065662560A560656025616561A56108229E
:103C900029005C30FFF71CFD6563A563A564E5643E
:103CA000E6E7C046AC400000F7B504000700002678
:103CB00001914834002C01D13000FEBD6368A56835
:103CC0000093009B013B009301D52468F2E7AB8988
:103CD000012B08D90E22AB5E013304D02900380035
:103CE000019B984706436835EBE7000070B50E006E
:103CF0001D000E23C95E90B01400002907DA0023CE
:103D00002B60B3891B0611D48023DB000FE001AACE
:103D100000F088F80028F2DBF022029B1202134028
:103D2000054A9B185A4253412B60EDE7402300207F
:103D3000236010B070BDC04600E0FFFF70477047C1
:103D400070B50C000E25495F00F092F8002803DBE7
:103D5000636D1B18636570BDA389024A1340A3817C
:103D6000F9E7C046FFEFFFFFF8B51F008B8905009C
:103D70000C001600DB0505D50E23C95E00220223C8
:103D800000F062F8A389054A28001340A38132009D
:103D90000E23E15E3B0000F01FF8F8BDFFEFFFFFD0
:103DA00070B50C000E25495F00F04EF8A389421C47
:103DB00003D1054A1340A38170BD802252011343F1
:103DC000A3816065F8E7C046FFEFFFFF10B50E2343
:103DD000C95E00F015F810BD70B5050008001100AF
:103DE0000022064C22601A00FFF73CFA431C03D164
:103DF0002368002B00D02B6070BDC046480900200E
:103E0000002370B5064C050008002360FFF77EFA1A
:103E1000431C03D12368002B00D02B6070BDC0462B
:103E200048090020002370B5064C05000800110069
:103E30002360FFF775FA431C03D12368002B00D0E1
:103E40002B6070BD4809002070B505000800110006
:103E50000022064C22601A00FFF770FA431C03D1BF
:103E60002368002B00D02B6070BDC046480900209D
:103E700070B50500080011000022064C22601A00EF
:103E8000FFF7C6F9431C03D12368002B00D02B6039
:103E900070BDC0464809002000080042000C0042E6
:103EA000001000420014004200180042001C0042B2
:103EB000090A0B0C0D0E00008E23000008240000E0
:103EC00008240000AC230000A6230000B223000059
:103ED00094230000B8230000EE230000D426000045
:103EE000242700002427000020270000C626000009
:103EF000E6260000B6260000F82600000A2700008B
:103F000072270000A0270000A02700009C270000C7
:103F10006C27000078270000662700007E2700003D
:103F200084270000455345353136202D20454E5419
:103F3000455220424F4F544C4F41444552000000DF
:103F4000455345353136202D204558495420424FA0
:103F50004F544C4F4144455200000000534420430D
:103F600061726420696E6974696174656420636F4D
:103F700072726563746C79210A0D00004D6F756E65
:103F800074206469736B2028665F6D6F756E742989
:103F90002E2E2E0D0A0000005B4641494C5D20721A
:103FA00065732025640D0A005B4F4B5D0D0A000010
:103FB00043726561746520612066696C65202866BE
:103FC0005F6F70656E292E2E2E0D0A005772697470
:103FD0006520746F20746573742066696C65202891
:103FE000665F70757473292E2E2E0D0A0000000076
:103FF000546573742053442F4D4D43207374616393
:104000006B0A00005B4641494C5D0D0A0000000050
:104010005465737420697320737563636573736685
:10402000756C2E0A0D000000436F756C64206E6F76
:1040300074206F70656E2062696E617279206669A6
:104040006C65210D0A000000577269746520746F59
:1040500020746573742066696C652028665F7772CA
:10406000697465292E2E2E0D0A000000456E64200D
:104070006F6620546573742E0A0D0000534420436C
:10408000617264206661696C656420696E69746937
:104090006174696F6E2120436865636B20636F6E86
:1040A0006E656374696F6E73210A0D001000002045
:1040B0000000000000000000000000000000000000
:1040C00000000000000000000000000000000000F0
:1040D00000000000000000000000000000000000E0
:1040E00000000000000000000000000000000000D0
:1040F00000000000000000000000000000000000C0
:1041000000000000000000000000000000000000AF
:10411000F8B5C046F8BC08BC9E467047DD000000FC
:10412000F8B5C046F8BC08BC9E467047B500000014
:10413000401F0000080000000100000010000020E7
:1041400000000000D0400000F0400000B04000003F
:10415000000000000000000000000000000000005F
:10416000000000000000000000000000000000004F
:10417000000000000000000000000000000000003F
:10418000000000000000000000000000000000002F
:10419000000000000000000000000000000000001F
:00000001FF
